{
	"CekKeaslianObat.sol": {
		"DrugAuthenticity": {
			"abi": [
				{
					"inputs": [],
					"stateMutability": "nonpayable",
					"type": "constructor"
				},
				{
					"anonymous": false,
					"inputs": [
						{
							"indexed": false,
							"internalType": "string",
							"name": "drugID",
							"type": "string"
						},
						{
							"indexed": false,
							"internalType": "string",
							"name": "drugName",
							"type": "string"
						},
						{
							"indexed": false,
							"internalType": "string",
							"name": "manufacturer",
							"type": "string"
						}
					],
					"name": "DrugRegistered",
					"type": "event"
				},
				{
					"anonymous": false,
					"inputs": [
						{
							"indexed": false,
							"internalType": "string",
							"name": "drugID",
							"type": "string"
						},
						{
							"indexed": false,
							"internalType": "enum DrugAuthenticity.DrugStatus",
							"name": "newStatus",
							"type": "uint8"
						}
					],
					"name": "StatusUpdated",
					"type": "event"
				},
				{
					"inputs": [
						{
							"internalType": "string",
							"name": "_drugID",
							"type": "string"
						}
					],
					"name": "getDrug",
					"outputs": [
						{
							"components": [
								{
									"internalType": "string",
									"name": "drugID",
									"type": "string"
								},
								{
									"internalType": "string",
									"name": "drugName",
									"type": "string"
								},
								{
									"internalType": "string",
									"name": "manufacturer",
									"type": "string"
								},
								{
									"internalType": "string",
									"name": "batchNumber",
									"type": "string"
								},
								{
									"internalType": "uint256",
									"name": "productionDate",
									"type": "uint256"
								},
								{
									"internalType": "enum DrugAuthenticity.DrugStatus",
									"name": "status",
									"type": "uint8"
								},
								{
									"internalType": "bool",
									"name": "exists",
									"type": "bool"
								}
							],
							"internalType": "struct DrugAuthenticity.Drug",
							"name": "",
							"type": "tuple"
						}
					],
					"stateMutability": "view",
					"type": "function"
				},
				{
					"inputs": [],
					"name": "owner",
					"outputs": [
						{
							"internalType": "address",
							"name": "",
							"type": "address"
						}
					],
					"stateMutability": "view",
					"type": "function"
				},
				{
					"inputs": [
						{
							"internalType": "string",
							"name": "_drugID",
							"type": "string"
						},
						{
							"internalType": "string",
							"name": "_drugName",
							"type": "string"
						},
						{
							"internalType": "string",
							"name": "_manufacturer",
							"type": "string"
						},
						{
							"internalType": "string",
							"name": "_batchNumber",
							"type": "string"
						}
					],
					"name": "registerDrug",
					"outputs": [],
					"stateMutability": "nonpayable",
					"type": "function"
				},
				{
					"inputs": [
						{
							"internalType": "string",
							"name": "_drugID",
							"type": "string"
						},
						{
							"internalType": "enum DrugAuthenticity.DrugStatus",
							"name": "_status",
							"type": "uint8"
						}
					],
					"name": "updateStatus",
					"outputs": [],
					"stateMutability": "nonpayable",
					"type": "function"
				},
				{
					"inputs": [
						{
							"internalType": "string",
							"name": "_drugID",
							"type": "string"
						}
					],
					"name": "verifyDrug",
					"outputs": [
						{
							"internalType": "bool",
							"name": "authentic",
							"type": "bool"
						},
						{
							"internalType": "string",
							"name": "drugName",
							"type": "string"
						},
						{
							"internalType": "string",
							"name": "manufacturer",
							"type": "string"
						},
						{
							"internalType": "string",
							"name": "batchNumber",
							"type": "string"
						},
						{
							"internalType": "uint256",
							"name": "productionDate",
							"type": "uint256"
						},
						{
							"internalType": "enum DrugAuthenticity.DrugStatus",
							"name": "status",
							"type": "uint8"
						}
					],
					"stateMutability": "view",
					"type": "function"
				}
			],
			"devdoc": {
				"kind": "dev",
				"methods": {},
				"version": 1
			},
			"evm": {
				"assembly": "    /* \"CekKeaslianObat.sol\":60:4374  contract DrugAuthenticity {\r... */\n  mstore(0x40, 0x80)\n    /* \"CekKeaslianObat.sol\":1014:1065  constructor() {\r... */\n  callvalue\n  dup1\n  iszero\n  tag_1\n  jumpi\n  0x00\n  dup1\n  revert\ntag_1:\n  pop\n    /* \"CekKeaslianObat.sol\":1047:1057  msg.sender */\n  caller\n    /* \"CekKeaslianObat.sol\":1039:1044  owner */\n  0x00\n  dup1\n    /* \"CekKeaslianObat.sol\":1039:1057  owner = msg.sender */\n  0x0100\n  exp\n  dup2\n  sload\n  dup2\n  0xffffffffffffffffffffffffffffffffffffffff\n  mul\n  not\n  and\n  swap1\n  dup4\n  0xffffffffffffffffffffffffffffffffffffffff\n  and\n  mul\n  or\n  swap1\n  sstore\n  pop\n    /* \"CekKeaslianObat.sol\":60:4374  contract DrugAuthenticity {\r... */\n  dataSize(sub_0)\n  dup1\n  dataOffset(sub_0)\n  0x00\n  codecopy\n  0x00\n  return\nstop\n\nsub_0: assembly {\n        /* \"CekKeaslianObat.sol\":60:4374  contract DrugAuthenticity {\r... */\n      mstore(0x40, 0x80)\n      callvalue\n      dup1\n      iszero\n      tag_1\n      jumpi\n      0x00\n      dup1\n      revert\n    tag_1:\n      pop\n      jumpi(tag_2, lt(calldatasize, 0x04))\n      shr(0xe0, calldataload(0x00))\n      dup1\n      0x1b1fd991\n      eq\n      tag_3\n      jumpi\n      dup1\n      0x3b7b0a74\n      eq\n      tag_4\n      jumpi\n      dup1\n      0x53616982\n      eq\n      tag_5\n      jumpi\n      dup1\n      0x7ecd4492\n      eq\n      tag_6\n      jumpi\n      dup1\n      0x8da5cb5b\n      eq\n      tag_7\n      jumpi\n    tag_2:\n      0x00\n      dup1\n      revert\n        /* \"CekKeaslianObat.sol\":1871:2561  function registerDrug(\r... */\n    tag_3:\n      tag_8\n      0x04\n      dup1\n      calldatasize\n      sub\n      dup2\n      add\n      swap1\n      tag_9\n      swap2\n      swap1\n      tag_10\n      jump\t// in\n    tag_9:\n      tag_11\n      jump\t// in\n    tag_8:\n      stop\n        /* \"CekKeaslianObat.sol\":3182:3991  function verifyDrug(\r... */\n    tag_4:\n      tag_12\n      0x04\n      dup1\n      calldatasize\n      sub\n      dup2\n      add\n      swap1\n      tag_13\n      swap2\n      swap1\n      tag_14\n      jump\t// in\n    tag_13:\n      tag_15\n      jump\t// in\n    tag_12:\n      mload(0x40)\n      tag_16\n      swap7\n      swap6\n      swap5\n      swap4\n      swap3\n      swap2\n      swap1\n      tag_17\n      jump\t// in\n    tag_16:\n      mload(0x40)\n      dup1\n      swap2\n      sub\n      swap1\n      return\n        /* \"CekKeaslianObat.sol\":2719:3025  function updateStatus(\r... */\n    tag_5:\n      tag_18\n      0x04\n      dup1\n      calldatasize\n      sub\n      dup2\n      add\n      swap1\n      tag_19\n      swap2\n      swap1\n      tag_20\n      jump\t// in\n    tag_19:\n      tag_21\n      jump\t// in\n    tag_18:\n      stop\n        /* \"CekKeaslianObat.sol\":4147:4369  function getDrug(\r... */\n    tag_6:\n      tag_22\n      0x04\n      dup1\n      calldatasize\n      sub\n      dup2\n      add\n      swap1\n      tag_23\n      swap2\n      swap1\n      tag_14\n      jump\t// in\n    tag_23:\n      tag_24\n      jump\t// in\n    tag_22:\n      mload(0x40)\n      tag_25\n      swap2\n      swap1\n      tag_26\n      jump\t// in\n    tag_25:\n      mload(0x40)\n      dup1\n      swap2\n      sub\n      swap1\n      return\n        /* \"CekKeaslianObat.sol\":985:1005  address public owner */\n    tag_7:\n      tag_27\n      tag_28\n      jump\t// in\n    tag_27:\n      mload(0x40)\n      tag_29\n      swap2\n      swap1\n      tag_30\n      jump\t// in\n    tag_29:\n      mload(0x40)\n      dup1\n      swap2\n      sub\n      swap1\n      return\n        /* \"CekKeaslianObat.sol\":1871:2561  function registerDrug(\r... */\n    tag_11:\n        /* \"CekKeaslianObat.sol\":1127:1132  owner */\n      0x00\n      dup1\n      sload\n      swap1\n      0x0100\n      exp\n      swap1\n      div\n      0xffffffffffffffffffffffffffffffffffffffff\n      and\n        /* \"CekKeaslianObat.sol\":1113:1132  msg.sender == owner */\n      0xffffffffffffffffffffffffffffffffffffffff\n      and\n        /* \"CekKeaslianObat.sol\":1113:1123  msg.sender */\n      caller\n        /* \"CekKeaslianObat.sol\":1113:1132  msg.sender == owner */\n      0xffffffffffffffffffffffffffffffffffffffff\n      and\n      eq\n        /* \"CekKeaslianObat.sol\":1105:1154  require(msg.sender == owner, \"Only manufacturer\") */\n      tag_32\n      jumpi\n      mload(0x40)\n      0x08c379a000000000000000000000000000000000000000000000000000000000\n      dup2\n      mstore\n      0x04\n      add\n      tag_33\n      swap1\n      tag_34\n      jump\t// in\n    tag_33:\n      mload(0x40)\n      dup1\n      swap2\n      sub\n      swap1\n      revert\n    tag_32:\n        /* \"CekKeaslianObat.sol\":2080:2085  drugs */\n      0x01\n        /* \"CekKeaslianObat.sol\":2086:2093  _drugID */\n      dup5\n        /* \"CekKeaslianObat.sol\":2080:2094  drugs[_drugID] */\n      mload(0x40)\n      tag_36\n      swap2\n      swap1\n      tag_37\n      jump\t// in\n    tag_36:\n      swap1\n      dup2\n      mstore\n      0x20\n      add\n      mload(0x40)\n      dup1\n      swap2\n      sub\n      swap1\n      keccak256\n        /* \"CekKeaslianObat.sol\":2080:2101  drugs[_drugID].exists */\n      0x05\n      add\n      0x01\n      swap1\n      sload\n      swap1\n      0x0100\n      exp\n      swap1\n      div\n      0xff\n      and\n        /* \"CekKeaslianObat.sol\":2079:2101  !drugs[_drugID].exists */\n      iszero\n        /* \"CekKeaslianObat.sol\":2071:2128  require(!drugs[_drugID].exists, \"Drug ID already exists\") */\n      tag_38\n      jumpi\n      mload(0x40)\n      0x08c379a000000000000000000000000000000000000000000000000000000000\n      dup2\n      mstore\n      0x04\n      add\n      tag_39\n      swap1\n      tag_40\n      jump\t// in\n    tag_39:\n      mload(0x40)\n      dup1\n      swap2\n      sub\n      swap1\n      revert\n    tag_38:\n        /* \"CekKeaslianObat.sol\":2158:2436  Drug({\r... */\n      mload(0x40)\n      dup1\n      0xe0\n      add\n      0x40\n      mstore\n      dup1\n        /* \"CekKeaslianObat.sol\":2186:2193  _drugID */\n      dup6\n        /* \"CekKeaslianObat.sol\":2158:2436  Drug({\r... */\n      dup2\n      mstore\n      0x20\n      add\n        /* \"CekKeaslianObat.sol\":2218:2227  _drugName */\n      dup5\n        /* \"CekKeaslianObat.sol\":2158:2436  Drug({\r... */\n      dup2\n      mstore\n      0x20\n      add\n        /* \"CekKeaslianObat.sol\":2256:2269  _manufacturer */\n      dup4\n        /* \"CekKeaslianObat.sol\":2158:2436  Drug({\r... */\n      dup2\n      mstore\n      0x20\n      add\n        /* \"CekKeaslianObat.sol\":2297:2309  _batchNumber */\n      dup3\n        /* \"CekKeaslianObat.sol\":2158:2436  Drug({\r... */\n      dup2\n      mstore\n      0x20\n      add\n        /* \"CekKeaslianObat.sol\":2340:2355  block.timestamp */\n      timestamp\n        /* \"CekKeaslianObat.sol\":2158:2436  Drug({\r... */\n      dup2\n      mstore\n      0x20\n      add\n        /* \"CekKeaslianObat.sol\":2378:2397  DrugStatus.Produced */\n      0x00\n        /* \"CekKeaslianObat.sol\":2158:2436  Drug({\r... */\n      0x03\n      dup2\n      gt\n      iszero\n      tag_41\n      jumpi\n      mstore(0x00, 0x4e487b7100000000000000000000000000000000000000000000000000000000)\n      mstore(0x04, 0x21)\n      revert(0x00, 0x24)\n    tag_41:\n      dup2\n      mstore\n      0x20\n      add\n        /* \"CekKeaslianObat.sol\":2420:2424  true */\n      0x01\n        /* \"CekKeaslianObat.sol\":2158:2436  Drug({\r... */\n      iszero\n      iszero\n      dup2\n      mstore\n      pop\n        /* \"CekKeaslianObat.sol\":2141:2146  drugs */\n      0x01\n        /* \"CekKeaslianObat.sol\":2147:2154  _drugID */\n      dup6\n        /* \"CekKeaslianObat.sol\":2141:2155  drugs[_drugID] */\n      mload(0x40)\n      tag_42\n      swap2\n      swap1\n      tag_37\n      jump\t// in\n    tag_42:\n      swap1\n      dup2\n      mstore\n      0x20\n      add\n      mload(0x40)\n      dup1\n      swap2\n      sub\n      swap1\n      keccak256\n        /* \"CekKeaslianObat.sol\":2141:2436  drugs[_drugID] = Drug({\r... */\n      0x00\n      dup3\n      add\n      mload\n      dup2\n      0x00\n      add\n      swap1\n      dup1\n      mload\n      swap1\n      0x20\n      add\n      swap1\n      tag_43\n      swap3\n      swap2\n      swap1\n      tag_44\n      jump\t// in\n    tag_43:\n      pop\n      0x20\n      dup3\n      add\n      mload\n      dup2\n      0x01\n      add\n      swap1\n      dup1\n      mload\n      swap1\n      0x20\n      add\n      swap1\n      tag_45\n      swap3\n      swap2\n      swap1\n      tag_44\n      jump\t// in\n    tag_45:\n      pop\n      0x40\n      dup3\n      add\n      mload\n      dup2\n      0x02\n      add\n      swap1\n      dup1\n      mload\n      swap1\n      0x20\n      add\n      swap1\n      tag_46\n      swap3\n      swap2\n      swap1\n      tag_44\n      jump\t// in\n    tag_46:\n      pop\n      0x60\n      dup3\n      add\n      mload\n      dup2\n      0x03\n      add\n      swap1\n      dup1\n      mload\n      swap1\n      0x20\n      add\n      swap1\n      tag_47\n      swap3\n      swap2\n      swap1\n      tag_44\n      jump\t// in\n    tag_47:\n      pop\n      0x80\n      dup3\n      add\n      mload\n      dup2\n      0x04\n      add\n      sstore\n      0xa0\n      dup3\n      add\n      mload\n      dup2\n      0x05\n      add\n      exp(0x0100, 0x00)\n      dup2\n      sload\n      dup2\n      0xff\n      mul\n      not\n      and\n      swap1\n      dup4\n      0x03\n      dup2\n      gt\n      iszero\n      tag_48\n      jumpi\n      mstore(0x00, 0x4e487b7100000000000000000000000000000000000000000000000000000000)\n      mstore(0x04, 0x21)\n      revert(0x00, 0x24)\n    tag_48:\n      mul\n      or\n      swap1\n      sstore\n      pop\n      0xc0\n      dup3\n      add\n      mload\n      dup2\n      0x05\n      add\n      exp(0x0100, 0x01)\n      dup2\n      sload\n      dup2\n      0xff\n      mul\n      not\n      and\n      swap1\n      dup4\n      iszero\n      iszero\n      mul\n      or\n      swap1\n      sstore\n      pop\n      swap1\n      pop\n      pop\n        /* \"CekKeaslianObat.sol\":2454:2553  DrugRegistered(\r... */\n      0x5778f73fb53529f08b83c7e4181c793147931e5121ba512a81c7b51dd29fd163\n        /* \"CekKeaslianObat.sol\":2483:2490  _drugID */\n      dup5\n        /* \"CekKeaslianObat.sol\":2505:2514  _drugName */\n      dup5\n        /* \"CekKeaslianObat.sol\":2529:2542  _manufacturer */\n      dup5\n        /* \"CekKeaslianObat.sol\":2454:2553  DrugRegistered(\r... */\n      mload(0x40)\n      tag_49\n      swap4\n      swap3\n      swap2\n      swap1\n      tag_50\n      jump\t// in\n    tag_49:\n      mload(0x40)\n      dup1\n      swap2\n      sub\n      swap1\n      log1\n        /* \"CekKeaslianObat.sol\":1871:2561  function registerDrug(\r... */\n      pop\n      pop\n      pop\n      pop\n      jump\t// out\n        /* \"CekKeaslianObat.sol\":3182:3991  function verifyDrug(\r... */\n    tag_15:\n        /* \"CekKeaslianObat.sol\":3302:3316  bool authentic */\n      0x00\n        /* \"CekKeaslianObat.sol\":3331:3353  string memory drugName */\n      0x60\n        /* \"CekKeaslianObat.sol\":3368:3394  string memory manufacturer */\n      dup1\n        /* \"CekKeaslianObat.sol\":3409:3434  string memory batchNumber */\n      0x60\n        /* \"CekKeaslianObat.sol\":3449:3471  uint256 productionDate */\n      0x00\n        /* \"CekKeaslianObat.sol\":3486:3503  DrugStatus status */\n      dup1\n        /* \"CekKeaslianObat.sol\":3537:3542  drugs */\n      0x01\n        /* \"CekKeaslianObat.sol\":3543:3550  _drugID */\n      dup8\n        /* \"CekKeaslianObat.sol\":3537:3551  drugs[_drugID] */\n      mload(0x40)\n      tag_52\n      swap2\n      swap1\n      tag_37\n      jump\t// in\n    tag_52:\n      swap1\n      dup2\n      mstore\n      0x20\n      add\n      mload(0x40)\n      dup1\n      swap2\n      sub\n      swap1\n      keccak256\n        /* \"CekKeaslianObat.sol\":3537:3558  drugs[_drugID].exists */\n      0x05\n      add\n      0x01\n      swap1\n      sload\n      swap1\n      0x0100\n      exp\n      swap1\n      div\n      0xff\n      and\n        /* \"CekKeaslianObat.sol\":3533:3756  if(!drugs[_drugID].exists){\r... */\n      tag_53\n      jumpi\n        /* \"CekKeaslianObat.sol\":3601:3606  false */\n      0x00\n        /* \"CekKeaslianObat.sol\":3688:3689  0 */\n      dup1\n        /* \"CekKeaslianObat.sol\":3708:3727  DrugStatus.Produced */\n      0x00\n        /* \"CekKeaslianObat.sol\":3576:3742  return(\r... */\n      mload(0x40)\n      dup1\n      0x20\n      add\n      0x40\n      mstore\n      dup1\n      0x00\n      dup2\n      mstore\n      pop\n      swap2\n      swap1\n      mload(0x40)\n      dup1\n      0x20\n      add\n      0x40\n      mstore\n      dup1\n      0x00\n      dup2\n      mstore\n      pop\n      swap2\n      swap1\n      mload(0x40)\n      dup1\n      0x20\n      add\n      0x40\n      mstore\n      dup1\n      0x00\n      dup2\n      mstore\n      pop\n      swap2\n      swap1\n      swap6\n      pop\n      swap6\n      pop\n      swap6\n      pop\n      swap6\n      pop\n      swap6\n      pop\n      swap6\n      pop\n      jump(tag_51)\n        /* \"CekKeaslianObat.sol\":3533:3756  if(!drugs[_drugID].exists){\r... */\n    tag_53:\n        /* \"CekKeaslianObat.sol\":3768:3781  Drug memory d */\n      0x00\n        /* \"CekKeaslianObat.sol\":3784:3789  drugs */\n      0x01\n        /* \"CekKeaslianObat.sol\":3790:3797  _drugID */\n      dup9\n        /* \"CekKeaslianObat.sol\":3784:3798  drugs[_drugID] */\n      mload(0x40)\n      tag_54\n      swap2\n      swap1\n      tag_37\n      jump\t// in\n    tag_54:\n      swap1\n      dup2\n      mstore\n      0x20\n      add\n      mload(0x40)\n      dup1\n      swap2\n      sub\n      swap1\n      keccak256\n        /* \"CekKeaslianObat.sol\":3768:3798  Drug memory d = drugs[_drugID] */\n      mload(0x40)\n      dup1\n      0xe0\n      add\n      0x40\n      mstore\n      swap1\n      dup2\n      0x00\n      dup3\n      add\n      dup1\n      sload\n      tag_55\n      swap1\n      tag_56\n      jump\t// in\n    tag_55:\n      dup1\n      0x1f\n      add\n      0x20\n      dup1\n      swap2\n      div\n      mul\n      0x20\n      add\n      mload(0x40)\n      swap1\n      dup2\n      add\n      0x40\n      mstore\n      dup1\n      swap3\n      swap2\n      swap1\n      dup2\n      dup2\n      mstore\n      0x20\n      add\n      dup3\n      dup1\n      sload\n      tag_57\n      swap1\n      tag_56\n      jump\t// in\n    tag_57:\n      dup1\n      iszero\n      tag_58\n      jumpi\n      dup1\n      0x1f\n      lt\n      tag_59\n      jumpi\n      0x0100\n      dup1\n      dup4\n      sload\n      div\n      mul\n      dup4\n      mstore\n      swap2\n      0x20\n      add\n      swap2\n      jump(tag_58)\n    tag_59:\n      dup3\n      add\n      swap2\n      swap1\n      0x00\n      mstore\n      keccak256(0x00, 0x20)\n      swap1\n    tag_60:\n      dup2\n      sload\n      dup2\n      mstore\n      swap1\n      0x01\n      add\n      swap1\n      0x20\n      add\n      dup1\n      dup4\n      gt\n      tag_60\n      jumpi\n      dup3\n      swap1\n      sub\n      0x1f\n      and\n      dup3\n      add\n      swap2\n    tag_58:\n      pop\n      pop\n      pop\n      pop\n      pop\n      dup2\n      mstore\n      0x20\n      add\n      0x01\n      dup3\n      add\n      dup1\n      sload\n      tag_61\n      swap1\n      tag_56\n      jump\t// in\n    tag_61:\n      dup1\n      0x1f\n      add\n      0x20\n      dup1\n      swap2\n      div\n      mul\n      0x20\n      add\n      mload(0x40)\n      swap1\n      dup2\n      add\n      0x40\n      mstore\n      dup1\n      swap3\n      swap2\n      swap1\n      dup2\n      dup2\n      mstore\n      0x20\n      add\n      dup3\n      dup1\n      sload\n      tag_62\n      swap1\n      tag_56\n      jump\t// in\n    tag_62:\n      dup1\n      iszero\n      tag_63\n      jumpi\n      dup1\n      0x1f\n      lt\n      tag_64\n      jumpi\n      0x0100\n      dup1\n      dup4\n      sload\n      div\n      mul\n      dup4\n      mstore\n      swap2\n      0x20\n      add\n      swap2\n      jump(tag_63)\n    tag_64:\n      dup3\n      add\n      swap2\n      swap1\n      0x00\n      mstore\n      keccak256(0x00, 0x20)\n      swap1\n    tag_65:\n      dup2\n      sload\n      dup2\n      mstore\n      swap1\n      0x01\n      add\n      swap1\n      0x20\n      add\n      dup1\n      dup4\n      gt\n      tag_65\n      jumpi\n      dup3\n      swap1\n      sub\n      0x1f\n      and\n      dup3\n      add\n      swap2\n    tag_63:\n      pop\n      pop\n      pop\n      pop\n      pop\n      dup2\n      mstore\n      0x20\n      add\n      0x02\n      dup3\n      add\n      dup1\n      sload\n      tag_66\n      swap1\n      tag_56\n      jump\t// in\n    tag_66:\n      dup1\n      0x1f\n      add\n      0x20\n      dup1\n      swap2\n      div\n      mul\n      0x20\n      add\n      mload(0x40)\n      swap1\n      dup2\n      add\n      0x40\n      mstore\n      dup1\n      swap3\n      swap2\n      swap1\n      dup2\n      dup2\n      mstore\n      0x20\n      add\n      dup3\n      dup1\n      sload\n      tag_67\n      swap1\n      tag_56\n      jump\t// in\n    tag_67:\n      dup1\n      iszero\n      tag_68\n      jumpi\n      dup1\n      0x1f\n      lt\n      tag_69\n      jumpi\n      0x0100\n      dup1\n      dup4\n      sload\n      div\n      mul\n      dup4\n      mstore\n      swap2\n      0x20\n      add\n      swap2\n      jump(tag_68)\n    tag_69:\n      dup3\n      add\n      swap2\n      swap1\n      0x00\n      mstore\n      keccak256(0x00, 0x20)\n      swap1\n    tag_70:\n      dup2\n      sload\n      dup2\n      mstore\n      swap1\n      0x01\n      add\n      swap1\n      0x20\n      add\n      dup1\n      dup4\n      gt\n      tag_70\n      jumpi\n      dup3\n      swap1\n      sub\n      0x1f\n      and\n      dup3\n      add\n      swap2\n    tag_68:\n      pop\n      pop\n      pop\n      pop\n      pop\n      dup2\n      mstore\n      0x20\n      add\n      0x03\n      dup3\n      add\n      dup1\n      sload\n      tag_71\n      swap1\n      tag_56\n      jump\t// in\n    tag_71:\n      dup1\n      0x1f\n      add\n      0x20\n      dup1\n      swap2\n      div\n      mul\n      0x20\n      add\n      mload(0x40)\n      swap1\n      dup2\n      add\n      0x40\n      mstore\n      dup1\n      swap3\n      swap2\n      swap1\n      dup2\n      dup2\n      mstore\n      0x20\n      add\n      dup3\n      dup1\n      sload\n      tag_72\n      swap1\n      tag_56\n      jump\t// in\n    tag_72:\n      dup1\n      iszero\n      tag_73\n      jumpi\n      dup1\n      0x1f\n      lt\n      tag_74\n      jumpi\n      0x0100\n      dup1\n      dup4\n      sload\n      div\n      mul\n      dup4\n      mstore\n      swap2\n      0x20\n      add\n      swap2\n      jump(tag_73)\n    tag_74:\n      dup3\n      add\n      swap2\n      swap1\n      0x00\n      mstore\n      keccak256(0x00, 0x20)\n      swap1\n    tag_75:\n      dup2\n      sload\n      dup2\n      mstore\n      swap1\n      0x01\n      add\n      swap1\n      0x20\n      add\n      dup1\n      dup4\n      gt\n      tag_75\n      jumpi\n      dup3\n      swap1\n      sub\n      0x1f\n      and\n      dup3\n      add\n      swap2\n    tag_73:\n      pop\n      pop\n      pop\n      pop\n      pop\n      dup2\n      mstore\n      0x20\n      add\n      0x04\n      dup3\n      add\n      sload\n      dup2\n      mstore\n      0x20\n      add\n      0x05\n      dup3\n      add\n      0x00\n      swap1\n      sload\n      swap1\n      0x0100\n      exp\n      swap1\n      div\n      0xff\n      and\n      0x03\n      dup2\n      gt\n      iszero\n      tag_76\n      jumpi\n      mstore(0x00, 0x4e487b7100000000000000000000000000000000000000000000000000000000)\n      mstore(0x04, 0x21)\n      revert(0x00, 0x24)\n    tag_76:\n      0x03\n      dup2\n      gt\n      iszero\n      tag_77\n      jumpi\n      mstore(0x00, 0x4e487b7100000000000000000000000000000000000000000000000000000000)\n      mstore(0x04, 0x21)\n      revert(0x00, 0x24)\n    tag_77:\n      dup2\n      mstore\n      0x20\n      add\n      0x05\n      dup3\n      add\n      0x01\n      swap1\n      sload\n      swap1\n      0x0100\n      exp\n      swap1\n      div\n      0xff\n      and\n      iszero\n      iszero\n      iszero\n      iszero\n      dup2\n      mstore\n      pop\n      pop\n      swap1\n      pop\n        /* \"CekKeaslianObat.sol\":3832:3836  true */\n      0x01\n        /* \"CekKeaslianObat.sol\":3851:3852  d */\n      dup2\n        /* \"CekKeaslianObat.sol\":3851:3861  d.drugName */\n      0x20\n      add\n      mload\n        /* \"CekKeaslianObat.sol\":3876:3877  d */\n      dup3\n        /* \"CekKeaslianObat.sol\":3876:3890  d.manufacturer */\n      0x40\n      add\n      mload\n        /* \"CekKeaslianObat.sol\":3905:3906  d */\n      dup4\n        /* \"CekKeaslianObat.sol\":3905:3918  d.batchNumber */\n      0x60\n      add\n      mload\n        /* \"CekKeaslianObat.sol\":3933:3934  d */\n      dup5\n        /* \"CekKeaslianObat.sol\":3933:3949  d.productionDate */\n      0x80\n      add\n      mload\n        /* \"CekKeaslianObat.sol\":3964:3965  d */\n      dup6\n        /* \"CekKeaslianObat.sol\":3964:3972  d.status */\n      0xa0\n      add\n      mload\n        /* \"CekKeaslianObat.sol\":3811:3983  return(\r... */\n      swap7\n      pop\n      swap7\n      pop\n      swap7\n      pop\n      swap7\n      pop\n      swap7\n      pop\n      swap7\n      pop\n      pop\n        /* \"CekKeaslianObat.sol\":3182:3991  function verifyDrug(\r... */\n    tag_51:\n      swap2\n      swap4\n      swap6\n      pop\n      swap2\n      swap4\n      swap6\n      jump\t// out\n        /* \"CekKeaslianObat.sol\":2719:3025  function updateStatus(\r... */\n    tag_21:\n        /* \"CekKeaslianObat.sol\":1127:1132  owner */\n      0x00\n      dup1\n      sload\n      swap1\n      0x0100\n      exp\n      swap1\n      div\n      0xffffffffffffffffffffffffffffffffffffffff\n      and\n        /* \"CekKeaslianObat.sol\":1113:1132  msg.sender == owner */\n      0xffffffffffffffffffffffffffffffffffffffff\n      and\n        /* \"CekKeaslianObat.sol\":1113:1123  msg.sender */\n      caller\n        /* \"CekKeaslianObat.sol\":1113:1132  msg.sender == owner */\n      0xffffffffffffffffffffffffffffffffffffffff\n      and\n      eq\n        /* \"CekKeaslianObat.sol\":1105:1154  require(msg.sender == owner, \"Only manufacturer\") */\n      tag_79\n      jumpi\n      mload(0x40)\n      0x08c379a000000000000000000000000000000000000000000000000000000000\n      dup2\n      mstore\n      0x04\n      add\n      tag_80\n      swap1\n      tag_34\n      jump\t// in\n    tag_80:\n      mload(0x40)\n      dup1\n      swap2\n      sub\n      swap1\n      revert\n    tag_79:\n        /* \"CekKeaslianObat.sol\":2847:2852  drugs */\n      0x01\n        /* \"CekKeaslianObat.sol\":2853:2860  _drugID */\n      dup3\n        /* \"CekKeaslianObat.sol\":2847:2861  drugs[_drugID] */\n      mload(0x40)\n      tag_82\n      swap2\n      swap1\n      tag_37\n      jump\t// in\n    tag_82:\n      swap1\n      dup2\n      mstore\n      0x20\n      add\n      mload(0x40)\n      dup1\n      swap2\n      sub\n      swap1\n      keccak256\n        /* \"CekKeaslianObat.sol\":2847:2868  drugs[_drugID].exists */\n      0x05\n      add\n      0x01\n      swap1\n      sload\n      swap1\n      0x0100\n      exp\n      swap1\n      div\n      0xff\n      and\n        /* \"CekKeaslianObat.sol\":2839:2887  require(drugs[_drugID].exists, \"Drug not found\") */\n      tag_83\n      jumpi\n      mload(0x40)\n      0x08c379a000000000000000000000000000000000000000000000000000000000\n      dup2\n      mstore\n      0x04\n      add\n      tag_84\n      swap1\n      tag_85\n      jump\t// in\n    tag_84:\n      mload(0x40)\n      dup1\n      swap2\n      sub\n      swap1\n      revert\n    tag_83:\n        /* \"CekKeaslianObat.sol\":2924:2931  _status */\n      dup1\n        /* \"CekKeaslianObat.sol\":2900:2905  drugs */\n      0x01\n        /* \"CekKeaslianObat.sol\":2906:2913  _drugID */\n      dup4\n        /* \"CekKeaslianObat.sol\":2900:2914  drugs[_drugID] */\n      mload(0x40)\n      tag_86\n      swap2\n      swap1\n      tag_37\n      jump\t// in\n    tag_86:\n      swap1\n      dup2\n      mstore\n      0x20\n      add\n      mload(0x40)\n      dup1\n      swap2\n      sub\n      swap1\n      keccak256\n        /* \"CekKeaslianObat.sol\":2900:2921  drugs[_drugID].status */\n      0x05\n      add\n      0x00\n        /* \"CekKeaslianObat.sol\":2900:2931  drugs[_drugID].status = _status */\n      0x0100\n      exp\n      dup2\n      sload\n      dup2\n      0xff\n      mul\n      not\n      and\n      swap1\n      dup4\n      0x03\n      dup2\n      gt\n      iszero\n      tag_87\n      jumpi\n      mstore(0x00, 0x4e487b7100000000000000000000000000000000000000000000000000000000)\n      mstore(0x04, 0x21)\n      revert(0x00, 0x24)\n    tag_87:\n      mul\n      or\n      swap1\n      sstore\n      pop\n        /* \"CekKeaslianObat.sol\":2949:3017  StatusUpdated(\r... */\n      0x4e407d4f938199e743ff3f9c87db0c2b408db2c74b3b83b01299015302ef0532\n        /* \"CekKeaslianObat.sol\":2977:2984  _drugID */\n      dup3\n        /* \"CekKeaslianObat.sol\":2999:3006  _status */\n      dup3\n        /* \"CekKeaslianObat.sol\":2949:3017  StatusUpdated(\r... */\n      mload(0x40)\n      tag_88\n      swap3\n      swap2\n      swap1\n      tag_89\n      jump\t// in\n    tag_88:\n      mload(0x40)\n      dup1\n      swap2\n      sub\n      swap1\n      log1\n        /* \"CekKeaslianObat.sol\":2719:3025  function updateStatus(\r... */\n      pop\n      pop\n      jump\t// out\n        /* \"CekKeaslianObat.sol\":4147:4369  function getDrug(\r... */\n    tag_24:\n        /* \"CekKeaslianObat.sol\":4250:4261  Drug memory */\n      tag_90\n      tag_91\n      jump\t// in\n    tag_90:\n        /* \"CekKeaslianObat.sol\":4287:4292  drugs */\n      0x01\n        /* \"CekKeaslianObat.sol\":4293:4300  _drugID */\n      dup3\n        /* \"CekKeaslianObat.sol\":4287:4301  drugs[_drugID] */\n      mload(0x40)\n      tag_93\n      swap2\n      swap1\n      tag_37\n      jump\t// in\n    tag_93:\n      swap1\n      dup2\n      mstore\n      0x20\n      add\n      mload(0x40)\n      dup1\n      swap2\n      sub\n      swap1\n      keccak256\n        /* \"CekKeaslianObat.sol\":4287:4308  drugs[_drugID].exists */\n      0x05\n      add\n      0x01\n      swap1\n      sload\n      swap1\n      0x0100\n      exp\n      swap1\n      div\n      0xff\n      and\n        /* \"CekKeaslianObat.sol\":4279:4327  require(drugs[_drugID].exists, \"Drug not found\") */\n      tag_94\n      jumpi\n      mload(0x40)\n      0x08c379a000000000000000000000000000000000000000000000000000000000\n      dup2\n      mstore\n      0x04\n      add\n      tag_95\n      swap1\n      tag_85\n      jump\t// in\n    tag_95:\n      mload(0x40)\n      dup1\n      swap2\n      sub\n      swap1\n      revert\n    tag_94:\n        /* \"CekKeaslianObat.sol\":4347:4352  drugs */\n      0x01\n        /* \"CekKeaslianObat.sol\":4353:4360  _drugID */\n      dup3\n        /* \"CekKeaslianObat.sol\":4347:4361  drugs[_drugID] */\n      mload(0x40)\n      tag_96\n      swap2\n      swap1\n      tag_37\n      jump\t// in\n    tag_96:\n      swap1\n      dup2\n      mstore\n      0x20\n      add\n      mload(0x40)\n      dup1\n      swap2\n      sub\n      swap1\n      keccak256\n        /* \"CekKeaslianObat.sol\":4340:4361  return drugs[_drugID] */\n      mload(0x40)\n      dup1\n      0xe0\n      add\n      0x40\n      mstore\n      swap1\n      dup2\n      0x00\n      dup3\n      add\n      dup1\n      sload\n      tag_97\n      swap1\n      tag_56\n      jump\t// in\n    tag_97:\n      dup1\n      0x1f\n      add\n      0x20\n      dup1\n      swap2\n      div\n      mul\n      0x20\n      add\n      mload(0x40)\n      swap1\n      dup2\n      add\n      0x40\n      mstore\n      dup1\n      swap3\n      swap2\n      swap1\n      dup2\n      dup2\n      mstore\n      0x20\n      add\n      dup3\n      dup1\n      sload\n      tag_98\n      swap1\n      tag_56\n      jump\t// in\n    tag_98:\n      dup1\n      iszero\n      tag_99\n      jumpi\n      dup1\n      0x1f\n      lt\n      tag_100\n      jumpi\n      0x0100\n      dup1\n      dup4\n      sload\n      div\n      mul\n      dup4\n      mstore\n      swap2\n      0x20\n      add\n      swap2\n      jump(tag_99)\n    tag_100:\n      dup3\n      add\n      swap2\n      swap1\n      0x00\n      mstore\n      keccak256(0x00, 0x20)\n      swap1\n    tag_101:\n      dup2\n      sload\n      dup2\n      mstore\n      swap1\n      0x01\n      add\n      swap1\n      0x20\n      add\n      dup1\n      dup4\n      gt\n      tag_101\n      jumpi\n      dup3\n      swap1\n      sub\n      0x1f\n      and\n      dup3\n      add\n      swap2\n    tag_99:\n      pop\n      pop\n      pop\n      pop\n      pop\n      dup2\n      mstore\n      0x20\n      add\n      0x01\n      dup3\n      add\n      dup1\n      sload\n      tag_102\n      swap1\n      tag_56\n      jump\t// in\n    tag_102:\n      dup1\n      0x1f\n      add\n      0x20\n      dup1\n      swap2\n      div\n      mul\n      0x20\n      add\n      mload(0x40)\n      swap1\n      dup2\n      add\n      0x40\n      mstore\n      dup1\n      swap3\n      swap2\n      swap1\n      dup2\n      dup2\n      mstore\n      0x20\n      add\n      dup3\n      dup1\n      sload\n      tag_103\n      swap1\n      tag_56\n      jump\t// in\n    tag_103:\n      dup1\n      iszero\n      tag_104\n      jumpi\n      dup1\n      0x1f\n      lt\n      tag_105\n      jumpi\n      0x0100\n      dup1\n      dup4\n      sload\n      div\n      mul\n      dup4\n      mstore\n      swap2\n      0x20\n      add\n      swap2\n      jump(tag_104)\n    tag_105:\n      dup3\n      add\n      swap2\n      swap1\n      0x00\n      mstore\n      keccak256(0x00, 0x20)\n      swap1\n    tag_106:\n      dup2\n      sload\n      dup2\n      mstore\n      swap1\n      0x01\n      add\n      swap1\n      0x20\n      add\n      dup1\n      dup4\n      gt\n      tag_106\n      jumpi\n      dup3\n      swap1\n      sub\n      0x1f\n      and\n      dup3\n      add\n      swap2\n    tag_104:\n      pop\n      pop\n      pop\n      pop\n      pop\n      dup2\n      mstore\n      0x20\n      add\n      0x02\n      dup3\n      add\n      dup1\n      sload\n      tag_107\n      swap1\n      tag_56\n      jump\t// in\n    tag_107:\n      dup1\n      0x1f\n      add\n      0x20\n      dup1\n      swap2\n      div\n      mul\n      0x20\n      add\n      mload(0x40)\n      swap1\n      dup2\n      add\n      0x40\n      mstore\n      dup1\n      swap3\n      swap2\n      swap1\n      dup2\n      dup2\n      mstore\n      0x20\n      add\n      dup3\n      dup1\n      sload\n      tag_108\n      swap1\n      tag_56\n      jump\t// in\n    tag_108:\n      dup1\n      iszero\n      tag_109\n      jumpi\n      dup1\n      0x1f\n      lt\n      tag_110\n      jumpi\n      0x0100\n      dup1\n      dup4\n      sload\n      div\n      mul\n      dup4\n      mstore\n      swap2\n      0x20\n      add\n      swap2\n      jump(tag_109)\n    tag_110:\n      dup3\n      add\n      swap2\n      swap1\n      0x00\n      mstore\n      keccak256(0x00, 0x20)\n      swap1\n    tag_111:\n      dup2\n      sload\n      dup2\n      mstore\n      swap1\n      0x01\n      add\n      swap1\n      0x20\n      add\n      dup1\n      dup4\n      gt\n      tag_111\n      jumpi\n      dup3\n      swap1\n      sub\n      0x1f\n      and\n      dup3\n      add\n      swap2\n    tag_109:\n      pop\n      pop\n      pop\n      pop\n      pop\n      dup2\n      mstore\n      0x20\n      add\n      0x03\n      dup3\n      add\n      dup1\n      sload\n      tag_112\n      swap1\n      tag_56\n      jump\t// in\n    tag_112:\n      dup1\n      0x1f\n      add\n      0x20\n      dup1\n      swap2\n      div\n      mul\n      0x20\n      add\n      mload(0x40)\n      swap1\n      dup2\n      add\n      0x40\n      mstore\n      dup1\n      swap3\n      swap2\n      swap1\n      dup2\n      dup2\n      mstore\n      0x20\n      add\n      dup3\n      dup1\n      sload\n      tag_113\n      swap1\n      tag_56\n      jump\t// in\n    tag_113:\n      dup1\n      iszero\n      tag_114\n      jumpi\n      dup1\n      0x1f\n      lt\n      tag_115\n      jumpi\n      0x0100\n      dup1\n      dup4\n      sload\n      div\n      mul\n      dup4\n      mstore\n      swap2\n      0x20\n      add\n      swap2\n      jump(tag_114)\n    tag_115:\n      dup3\n      add\n      swap2\n      swap1\n      0x00\n      mstore\n      keccak256(0x00, 0x20)\n      swap1\n    tag_116:\n      dup2\n      sload\n      dup2\n      mstore\n      swap1\n      0x01\n      add\n      swap1\n      0x20\n      add\n      dup1\n      dup4\n      gt\n      tag_116\n      jumpi\n      dup3\n      swap1\n      sub\n      0x1f\n      and\n      dup3\n      add\n      swap2\n    tag_114:\n      pop\n      pop\n      pop\n      pop\n      pop\n      dup2\n      mstore\n      0x20\n      add\n      0x04\n      dup3\n      add\n      sload\n      dup2\n      mstore\n      0x20\n      add\n      0x05\n      dup3\n      add\n      0x00\n      swap1\n      sload\n      swap1\n      0x0100\n      exp\n      swap1\n      div\n      0xff\n      and\n      0x03\n      dup2\n      gt\n      iszero\n      tag_117\n      jumpi\n      mstore(0x00, 0x4e487b7100000000000000000000000000000000000000000000000000000000)\n      mstore(0x04, 0x21)\n      revert(0x00, 0x24)\n    tag_117:\n      0x03\n      dup2\n      gt\n      iszero\n      tag_118\n      jumpi\n      mstore(0x00, 0x4e487b7100000000000000000000000000000000000000000000000000000000)\n      mstore(0x04, 0x21)\n      revert(0x00, 0x24)\n    tag_118:\n      dup2\n      mstore\n      0x20\n      add\n      0x05\n      dup3\n      add\n      0x01\n      swap1\n      sload\n      swap1\n      0x0100\n      exp\n      swap1\n      div\n      0xff\n      and\n      iszero\n      iszero\n      iszero\n      iszero\n      dup2\n      mstore\n      pop\n      pop\n      swap1\n      pop\n        /* \"CekKeaslianObat.sol\":4147:4369  function getDrug(\r... */\n      swap2\n      swap1\n      pop\n      jump\t// out\n        /* \"CekKeaslianObat.sol\":985:1005  address public owner */\n    tag_28:\n      0x00\n      dup1\n      sload\n      swap1\n      0x0100\n      exp\n      swap1\n      div\n      0xffffffffffffffffffffffffffffffffffffffff\n      and\n      dup2\n      jump\t// out\n    tag_44:\n      dup3\n      dup1\n      sload\n      tag_119\n      swap1\n      tag_56\n      jump\t// in\n    tag_119:\n      swap1\n      0x00\n      mstore\n      keccak256(0x00, 0x20)\n      swap1\n      0x1f\n      add\n      0x20\n      swap1\n      div\n      dup2\n      add\n      swap3\n      dup3\n      tag_121\n      jumpi\n      0x00\n      dup6\n      sstore\n      jump(tag_120)\n    tag_121:\n      dup3\n      0x1f\n      lt\n      tag_122\n      jumpi\n      dup1\n      mload\n      not(0xff)\n      and\n      dup4\n      dup1\n      add\n      or\n      dup6\n      sstore\n      jump(tag_120)\n    tag_122:\n      dup3\n      dup1\n      add\n      0x01\n      add\n      dup6\n      sstore\n      dup3\n      iszero\n      tag_120\n      jumpi\n      swap2\n      dup3\n      add\n    tag_123:\n      dup3\n      dup2\n      gt\n      iszero\n      tag_124\n      jumpi\n      dup3\n      mload\n      dup3\n      sstore\n      swap2\n      0x20\n      add\n      swap2\n      swap1\n      0x01\n      add\n      swap1\n      jump(tag_123)\n    tag_124:\n    tag_120:\n      pop\n      swap1\n      pop\n      tag_125\n      swap2\n      swap1\n      tag_126\n      jump\t// in\n    tag_125:\n      pop\n      swap1\n      jump\t// out\n    tag_91:\n      mload(0x40)\n      dup1\n      0xe0\n      add\n      0x40\n      mstore\n      dup1\n      0x60\n      dup2\n      mstore\n      0x20\n      add\n      0x60\n      dup2\n      mstore\n      0x20\n      add\n      0x60\n      dup2\n      mstore\n      0x20\n      add\n      0x60\n      dup2\n      mstore\n      0x20\n      add\n      0x00\n      dup2\n      mstore\n      0x20\n      add\n      0x00\n      0x03\n      dup2\n      gt\n      iszero\n      tag_127\n      jumpi\n      mstore(0x00, 0x4e487b7100000000000000000000000000000000000000000000000000000000)\n      mstore(0x04, 0x21)\n      revert(0x00, 0x24)\n    tag_127:\n      dup2\n      mstore\n      0x20\n      add\n      iszero(iszero(0x00))\n      dup2\n      mstore\n      pop\n      swap1\n      jump\t// out\n    tag_126:\n    tag_128:\n      dup1\n      dup3\n      gt\n      iszero\n      tag_129\n      jumpi\n      0x00\n      dup2\n      0x00\n      swap1\n      sstore\n      pop\n      0x01\n      add\n      jump(tag_128)\n    tag_129:\n      pop\n      swap1\n      jump\t// out\n        /* \"#utility.yul\":7:351   */\n    tag_131:\n      0x00\n        /* \"#utility.yul\":110:175   */\n      tag_133\n        /* \"#utility.yul\":125:174   */\n      tag_134\n        /* \"#utility.yul\":167:173   */\n      dup5\n        /* \"#utility.yul\":125:174   */\n      tag_135\n      jump\t// in\n    tag_134:\n        /* \"#utility.yul\":110:175   */\n      tag_136\n      jump\t// in\n    tag_133:\n        /* \"#utility.yul\":101:175   */\n      swap1\n      pop\n        /* \"#utility.yul\":198:204   */\n      dup3\n        /* \"#utility.yul\":191:196   */\n      dup2\n        /* \"#utility.yul\":184:205   */\n      mstore\n        /* \"#utility.yul\":236:240   */\n      0x20\n        /* \"#utility.yul\":229:234   */\n      dup2\n        /* \"#utility.yul\":225:241   */\n      add\n        /* \"#utility.yul\":274:277   */\n      dup5\n        /* \"#utility.yul\":265:271   */\n      dup5\n        /* \"#utility.yul\":260:263   */\n      dup5\n        /* \"#utility.yul\":256:272   */\n      add\n        /* \"#utility.yul\":253:278   */\n      gt\n        /* \"#utility.yul\":250:252   */\n      iszero\n      tag_137\n      jumpi\n        /* \"#utility.yul\":291:292   */\n      0x00\n        /* \"#utility.yul\":288:289   */\n      dup1\n        /* \"#utility.yul\":281:293   */\n      revert\n        /* \"#utility.yul\":250:252   */\n    tag_137:\n        /* \"#utility.yul\":304:345   */\n      tag_138\n        /* \"#utility.yul\":338:344   */\n      dup5\n        /* \"#utility.yul\":333:336   */\n      dup3\n        /* \"#utility.yul\":328:331   */\n      dup6\n        /* \"#utility.yul\":304:345   */\n      tag_139\n      jump\t// in\n    tag_138:\n        /* \"#utility.yul\":91:351   */\n      pop\n      swap4\n      swap3\n      pop\n      pop\n      pop\n      jump\t// out\n        /* \"#utility.yul\":357:520   */\n    tag_140:\n      0x00\n        /* \"#utility.yul\":453:459   */\n      dup2\n        /* \"#utility.yul\":440:460   */\n      calldataload\n        /* \"#utility.yul\":431:460   */\n      swap1\n      pop\n        /* \"#utility.yul\":469:514   */\n      tag_142\n        /* \"#utility.yul\":508:513   */\n      dup2\n        /* \"#utility.yul\":469:514   */\n      tag_143\n      jump\t// in\n    tag_142:\n        /* \"#utility.yul\":421:520   */\n      swap3\n      swap2\n      pop\n      pop\n      jump\t// out\n        /* \"#utility.yul\":540:813   */\n    tag_144:\n      0x00\n        /* \"#utility.yul\":645:648   */\n      dup3\n        /* \"#utility.yul\":638:642   */\n      0x1f\n        /* \"#utility.yul\":630:636   */\n      dup4\n        /* \"#utility.yul\":626:643   */\n      add\n        /* \"#utility.yul\":622:649   */\n      slt\n        /* \"#utility.yul\":612:614   */\n      tag_146\n      jumpi\n        /* \"#utility.yul\":663:664   */\n      0x00\n        /* \"#utility.yul\":660:661   */\n      dup1\n        /* \"#utility.yul\":653:665   */\n      revert\n        /* \"#utility.yul\":612:614   */\n    tag_146:\n        /* \"#utility.yul\":703:709   */\n      dup2\n        /* \"#utility.yul\":690:710   */\n      calldataload\n        /* \"#utility.yul\":728:807   */\n      tag_147\n        /* \"#utility.yul\":803:806   */\n      dup5\n        /* \"#utility.yul\":795:801   */\n      dup3\n        /* \"#utility.yul\":788:792   */\n      0x20\n        /* \"#utility.yul\":780:786   */\n      dup7\n        /* \"#utility.yul\":776:793   */\n      add\n        /* \"#utility.yul\":728:807   */\n      tag_131\n      jump\t// in\n    tag_147:\n        /* \"#utility.yul\":719:807   */\n      swap2\n      pop\n        /* \"#utility.yul\":602:813   */\n      pop\n      swap3\n      swap2\n      pop\n      pop\n      jump\t// out\n        /* \"#utility.yul\":819:1194   */\n    tag_14:\n      0x00\n        /* \"#utility.yul\":937:939   */\n      0x20\n        /* \"#utility.yul\":925:934   */\n      dup3\n        /* \"#utility.yul\":916:923   */\n      dup5\n        /* \"#utility.yul\":912:935   */\n      sub\n        /* \"#utility.yul\":908:940   */\n      slt\n        /* \"#utility.yul\":905:907   */\n      iszero\n      tag_149\n      jumpi\n        /* \"#utility.yul\":953:954   */\n      0x00\n        /* \"#utility.yul\":950:951   */\n      dup1\n        /* \"#utility.yul\":943:955   */\n      revert\n        /* \"#utility.yul\":905:907   */\n    tag_149:\n        /* \"#utility.yul\":1024:1025   */\n      0x00\n        /* \"#utility.yul\":1013:1022   */\n      dup3\n        /* \"#utility.yul\":1009:1026   */\n      add\n        /* \"#utility.yul\":996:1027   */\n      calldataload\n        /* \"#utility.yul\":1054:1072   */\n      0xffffffffffffffff\n        /* \"#utility.yul\":1046:1052   */\n      dup2\n        /* \"#utility.yul\":1043:1073   */\n      gt\n        /* \"#utility.yul\":1040:1042   */\n      iszero\n      tag_150\n      jumpi\n        /* \"#utility.yul\":1086:1087   */\n      0x00\n        /* \"#utility.yul\":1083:1084   */\n      dup1\n        /* \"#utility.yul\":1076:1088   */\n      revert\n        /* \"#utility.yul\":1040:1042   */\n    tag_150:\n        /* \"#utility.yul\":1114:1177   */\n      tag_151\n        /* \"#utility.yul\":1169:1176   */\n      dup5\n        /* \"#utility.yul\":1160:1166   */\n      dup3\n        /* \"#utility.yul\":1149:1158   */\n      dup6\n        /* \"#utility.yul\":1145:1167   */\n      add\n        /* \"#utility.yul\":1114:1177   */\n      tag_144\n      jump\t// in\n    tag_151:\n        /* \"#utility.yul\":1104:1177   */\n      swap2\n      pop\n        /* \"#utility.yul\":967:1187   */\n      pop\n        /* \"#utility.yul\":895:1194   */\n      swap3\n      swap2\n      pop\n      pop\n      jump\t// out\n        /* \"#utility.yul\":1200:1744   */\n    tag_20:\n      0x00\n      dup1\n        /* \"#utility.yul\":1347:1349   */\n      0x40\n        /* \"#utility.yul\":1335:1344   */\n      dup4\n        /* \"#utility.yul\":1326:1333   */\n      dup6\n        /* \"#utility.yul\":1322:1345   */\n      sub\n        /* \"#utility.yul\":1318:1350   */\n      slt\n        /* \"#utility.yul\":1315:1317   */\n      iszero\n      tag_153\n      jumpi\n        /* \"#utility.yul\":1363:1364   */\n      0x00\n        /* \"#utility.yul\":1360:1361   */\n      dup1\n        /* \"#utility.yul\":1353:1365   */\n      revert\n        /* \"#utility.yul\":1315:1317   */\n    tag_153:\n        /* \"#utility.yul\":1434:1435   */\n      0x00\n        /* \"#utility.yul\":1423:1432   */\n      dup4\n        /* \"#utility.yul\":1419:1436   */\n      add\n        /* \"#utility.yul\":1406:1437   */\n      calldataload\n        /* \"#utility.yul\":1464:1482   */\n      0xffffffffffffffff\n        /* \"#utility.yul\":1456:1462   */\n      dup2\n        /* \"#utility.yul\":1453:1483   */\n      gt\n        /* \"#utility.yul\":1450:1452   */\n      iszero\n      tag_154\n      jumpi\n        /* \"#utility.yul\":1496:1497   */\n      0x00\n        /* \"#utility.yul\":1493:1494   */\n      dup1\n        /* \"#utility.yul\":1486:1498   */\n      revert\n        /* \"#utility.yul\":1450:1452   */\n    tag_154:\n        /* \"#utility.yul\":1524:1587   */\n      tag_155\n        /* \"#utility.yul\":1579:1586   */\n      dup6\n        /* \"#utility.yul\":1570:1576   */\n      dup3\n        /* \"#utility.yul\":1559:1568   */\n      dup7\n        /* \"#utility.yul\":1555:1577   */\n      add\n        /* \"#utility.yul\":1524:1587   */\n      tag_144\n      jump\t// in\n    tag_155:\n        /* \"#utility.yul\":1514:1587   */\n      swap3\n      pop\n        /* \"#utility.yul\":1377:1597   */\n      pop\n        /* \"#utility.yul\":1636:1638   */\n      0x20\n        /* \"#utility.yul\":1662:1727   */\n      tag_156\n        /* \"#utility.yul\":1719:1726   */\n      dup6\n        /* \"#utility.yul\":1710:1716   */\n      dup3\n        /* \"#utility.yul\":1699:1708   */\n      dup7\n        /* \"#utility.yul\":1695:1717   */\n      add\n        /* \"#utility.yul\":1662:1727   */\n      tag_140\n      jump\t// in\n    tag_156:\n        /* \"#utility.yul\":1652:1727   */\n      swap2\n      pop\n        /* \"#utility.yul\":1607:1737   */\n      pop\n        /* \"#utility.yul\":1305:1744   */\n      swap3\n      pop\n      swap3\n      swap1\n      pop\n      jump\t// out\n        /* \"#utility.yul\":1750:2900   */\n    tag_10:\n      0x00\n      dup1\n      0x00\n      dup1\n        /* \"#utility.yul\":1949:1952   */\n      0x80\n        /* \"#utility.yul\":1937:1946   */\n      dup6\n        /* \"#utility.yul\":1928:1935   */\n      dup8\n        /* \"#utility.yul\":1924:1947   */\n      sub\n        /* \"#utility.yul\":1920:1953   */\n      slt\n        /* \"#utility.yul\":1917:1919   */\n      iszero\n      tag_158\n      jumpi\n        /* \"#utility.yul\":1966:1967   */\n      0x00\n        /* \"#utility.yul\":1963:1964   */\n      dup1\n        /* \"#utility.yul\":1956:1968   */\n      revert\n        /* \"#utility.yul\":1917:1919   */\n    tag_158:\n        /* \"#utility.yul\":2037:2038   */\n      0x00\n        /* \"#utility.yul\":2026:2035   */\n      dup6\n        /* \"#utility.yul\":2022:2039   */\n      add\n        /* \"#utility.yul\":2009:2040   */\n      calldataload\n        /* \"#utility.yul\":2067:2085   */\n      0xffffffffffffffff\n        /* \"#utility.yul\":2059:2065   */\n      dup2\n        /* \"#utility.yul\":2056:2086   */\n      gt\n        /* \"#utility.yul\":2053:2055   */\n      iszero\n      tag_159\n      jumpi\n        /* \"#utility.yul\":2099:2100   */\n      0x00\n        /* \"#utility.yul\":2096:2097   */\n      dup1\n        /* \"#utility.yul\":2089:2101   */\n      revert\n        /* \"#utility.yul\":2053:2055   */\n    tag_159:\n        /* \"#utility.yul\":2127:2190   */\n      tag_160\n        /* \"#utility.yul\":2182:2189   */\n      dup8\n        /* \"#utility.yul\":2173:2179   */\n      dup3\n        /* \"#utility.yul\":2162:2171   */\n      dup9\n        /* \"#utility.yul\":2158:2180   */\n      add\n        /* \"#utility.yul\":2127:2190   */\n      tag_144\n      jump\t// in\n    tag_160:\n        /* \"#utility.yul\":2117:2190   */\n      swap5\n      pop\n        /* \"#utility.yul\":1980:2200   */\n      pop\n        /* \"#utility.yul\":2267:2269   */\n      0x20\n        /* \"#utility.yul\":2256:2265   */\n      dup6\n        /* \"#utility.yul\":2252:2270   */\n      add\n        /* \"#utility.yul\":2239:2271   */\n      calldataload\n        /* \"#utility.yul\":2298:2316   */\n      0xffffffffffffffff\n        /* \"#utility.yul\":2290:2296   */\n      dup2\n        /* \"#utility.yul\":2287:2317   */\n      gt\n        /* \"#utility.yul\":2284:2286   */\n      iszero\n      tag_161\n      jumpi\n        /* \"#utility.yul\":2330:2331   */\n      0x00\n        /* \"#utility.yul\":2327:2328   */\n      dup1\n        /* \"#utility.yul\":2320:2332   */\n      revert\n        /* \"#utility.yul\":2284:2286   */\n    tag_161:\n        /* \"#utility.yul\":2358:2421   */\n      tag_162\n        /* \"#utility.yul\":2413:2420   */\n      dup8\n        /* \"#utility.yul\":2404:2410   */\n      dup3\n        /* \"#utility.yul\":2393:2402   */\n      dup9\n        /* \"#utility.yul\":2389:2411   */\n      add\n        /* \"#utility.yul\":2358:2421   */\n      tag_144\n      jump\t// in\n    tag_162:\n        /* \"#utility.yul\":2348:2421   */\n      swap4\n      pop\n        /* \"#utility.yul\":2210:2431   */\n      pop\n        /* \"#utility.yul\":2498:2500   */\n      0x40\n        /* \"#utility.yul\":2487:2496   */\n      dup6\n        /* \"#utility.yul\":2483:2501   */\n      add\n        /* \"#utility.yul\":2470:2502   */\n      calldataload\n        /* \"#utility.yul\":2529:2547   */\n      0xffffffffffffffff\n        /* \"#utility.yul\":2521:2527   */\n      dup2\n        /* \"#utility.yul\":2518:2548   */\n      gt\n        /* \"#utility.yul\":2515:2517   */\n      iszero\n      tag_163\n      jumpi\n        /* \"#utility.yul\":2561:2562   */\n      0x00\n        /* \"#utility.yul\":2558:2559   */\n      dup1\n        /* \"#utility.yul\":2551:2563   */\n      revert\n        /* \"#utility.yul\":2515:2517   */\n    tag_163:\n        /* \"#utility.yul\":2589:2652   */\n      tag_164\n        /* \"#utility.yul\":2644:2651   */\n      dup8\n        /* \"#utility.yul\":2635:2641   */\n      dup3\n        /* \"#utility.yul\":2624:2633   */\n      dup9\n        /* \"#utility.yul\":2620:2642   */\n      add\n        /* \"#utility.yul\":2589:2652   */\n      tag_144\n      jump\t// in\n    tag_164:\n        /* \"#utility.yul\":2579:2652   */\n      swap3\n      pop\n        /* \"#utility.yul\":2441:2662   */\n      pop\n        /* \"#utility.yul\":2729:2731   */\n      0x60\n        /* \"#utility.yul\":2718:2727   */\n      dup6\n        /* \"#utility.yul\":2714:2732   */\n      add\n        /* \"#utility.yul\":2701:2733   */\n      calldataload\n        /* \"#utility.yul\":2760:2778   */\n      0xffffffffffffffff\n        /* \"#utility.yul\":2752:2758   */\n      dup2\n        /* \"#utility.yul\":2749:2779   */\n      gt\n        /* \"#utility.yul\":2746:2748   */\n      iszero\n      tag_165\n      jumpi\n        /* \"#utility.yul\":2792:2793   */\n      0x00\n        /* \"#utility.yul\":2789:2790   */\n      dup1\n        /* \"#utility.yul\":2782:2794   */\n      revert\n        /* \"#utility.yul\":2746:2748   */\n    tag_165:\n        /* \"#utility.yul\":2820:2883   */\n      tag_166\n        /* \"#utility.yul\":2875:2882   */\n      dup8\n        /* \"#utility.yul\":2866:2872   */\n      dup3\n        /* \"#utility.yul\":2855:2864   */\n      dup9\n        /* \"#utility.yul\":2851:2873   */\n      add\n        /* \"#utility.yul\":2820:2883   */\n      tag_144\n      jump\t// in\n    tag_166:\n        /* \"#utility.yul\":2810:2883   */\n      swap2\n      pop\n        /* \"#utility.yul\":2672:2893   */\n      pop\n        /* \"#utility.yul\":1907:2900   */\n      swap3\n      swap6\n      swap2\n      swap5\n      pop\n      swap3\n      pop\n      jump\t// out\n        /* \"#utility.yul\":2906:3024   */\n    tag_167:\n        /* \"#utility.yul\":2993:3017   */\n      tag_169\n        /* \"#utility.yul\":3011:3016   */\n      dup2\n        /* \"#utility.yul\":2993:3017   */\n      tag_170\n      jump\t// in\n    tag_169:\n        /* \"#utility.yul\":2988:2991   */\n      dup3\n        /* \"#utility.yul\":2981:3018   */\n      mstore\n        /* \"#utility.yul\":2971:3024   */\n      pop\n      pop\n      jump\t// out\n        /* \"#utility.yul\":3030:3129   */\n    tag_171:\n        /* \"#utility.yul\":3101:3122   */\n      tag_173\n        /* \"#utility.yul\":3116:3121   */\n      dup2\n        /* \"#utility.yul\":3101:3122   */\n      tag_174\n      jump\t// in\n    tag_173:\n        /* \"#utility.yul\":3096:3099   */\n      dup3\n        /* \"#utility.yul\":3089:3123   */\n      mstore\n        /* \"#utility.yul\":3079:3129   */\n      pop\n      pop\n      jump\t// out\n        /* \"#utility.yul\":3135:3244   */\n    tag_175:\n        /* \"#utility.yul\":3216:3237   */\n      tag_177\n        /* \"#utility.yul\":3231:3236   */\n      dup2\n        /* \"#utility.yul\":3216:3237   */\n      tag_174\n      jump\t// in\n    tag_177:\n        /* \"#utility.yul\":3211:3214   */\n      dup3\n        /* \"#utility.yul\":3204:3238   */\n      mstore\n        /* \"#utility.yul\":3194:3244   */\n      pop\n      pop\n      jump\t// out\n        /* \"#utility.yul\":3250:3391   */\n    tag_178:\n        /* \"#utility.yul\":3337:3384   */\n      tag_180\n        /* \"#utility.yul\":3378:3383   */\n      dup2\n        /* \"#utility.yul\":3337:3384   */\n      tag_181\n      jump\t// in\n    tag_180:\n        /* \"#utility.yul\":3332:3335   */\n      dup3\n        /* \"#utility.yul\":3325:3385   */\n      mstore\n        /* \"#utility.yul\":3315:3391   */\n      pop\n      pop\n      jump\t// out\n        /* \"#utility.yul\":3397:3548   */\n    tag_182:\n        /* \"#utility.yul\":3494:3541   */\n      tag_184\n        /* \"#utility.yul\":3535:3540   */\n      dup2\n        /* \"#utility.yul\":3494:3541   */\n      tag_181\n      jump\t// in\n    tag_184:\n        /* \"#utility.yul\":3489:3492   */\n      dup3\n        /* \"#utility.yul\":3482:3542   */\n      mstore\n        /* \"#utility.yul\":3472:3548   */\n      pop\n      pop\n      jump\t// out\n        /* \"#utility.yul\":3554:3898   */\n    tag_185:\n      0x00\n        /* \"#utility.yul\":3660:3699   */\n      tag_187\n        /* \"#utility.yul\":3693:3698   */\n      dup3\n        /* \"#utility.yul\":3660:3699   */\n      tag_188\n      jump\t// in\n    tag_187:\n        /* \"#utility.yul\":3715:3776   */\n      tag_189\n        /* \"#utility.yul\":3769:3775   */\n      dup2\n        /* \"#utility.yul\":3764:3767   */\n      dup6\n        /* \"#utility.yul\":3715:3776   */\n      tag_190\n      jump\t// in\n    tag_189:\n        /* \"#utility.yul\":3708:3776   */\n      swap4\n      pop\n        /* \"#utility.yul\":3785:3837   */\n      tag_191\n        /* \"#utility.yul\":3830:3836   */\n      dup2\n        /* \"#utility.yul\":3825:3828   */\n      dup6\n        /* \"#utility.yul\":3818:3822   */\n      0x20\n        /* \"#utility.yul\":3811:3816   */\n      dup7\n        /* \"#utility.yul\":3807:3823   */\n      add\n        /* \"#utility.yul\":3785:3837   */\n      tag_192\n      jump\t// in\n    tag_191:\n        /* \"#utility.yul\":3862:3891   */\n      tag_193\n        /* \"#utility.yul\":3884:3890   */\n      dup2\n        /* \"#utility.yul\":3862:3891   */\n      tag_194\n      jump\t// in\n    tag_193:\n        /* \"#utility.yul\":3857:3860   */\n      dup5\n        /* \"#utility.yul\":3853:3892   */\n      add\n        /* \"#utility.yul\":3846:3892   */\n      swap2\n      pop\n        /* \"#utility.yul\":3636:3898   */\n      pop\n      swap3\n      swap2\n      pop\n      pop\n      jump\t// out\n        /* \"#utility.yul\":3904:4268   */\n    tag_195:\n      0x00\n        /* \"#utility.yul\":4020:4059   */\n      tag_197\n        /* \"#utility.yul\":4053:4058   */\n      dup3\n        /* \"#utility.yul\":4020:4059   */\n      tag_188\n      jump\t// in\n    tag_197:\n        /* \"#utility.yul\":4075:4146   */\n      tag_198\n        /* \"#utility.yul\":4139:4145   */\n      dup2\n        /* \"#utility.yul\":4134:4137   */\n      dup6\n        /* \"#utility.yul\":4075:4146   */\n      tag_199\n      jump\t// in\n    tag_198:\n        /* \"#utility.yul\":4068:4146   */\n      swap4\n      pop\n        /* \"#utility.yul\":4155:4207   */\n      tag_200\n        /* \"#utility.yul\":4200:4206   */\n      dup2\n        /* \"#utility.yul\":4195:4198   */\n      dup6\n        /* \"#utility.yul\":4188:4192   */\n      0x20\n        /* \"#utility.yul\":4181:4186   */\n      dup7\n        /* \"#utility.yul\":4177:4193   */\n      add\n        /* \"#utility.yul\":4155:4207   */\n      tag_192\n      jump\t// in\n    tag_200:\n        /* \"#utility.yul\":4232:4261   */\n      tag_201\n        /* \"#utility.yul\":4254:4260   */\n      dup2\n        /* \"#utility.yul\":4232:4261   */\n      tag_194\n      jump\t// in\n    tag_201:\n        /* \"#utility.yul\":4227:4230   */\n      dup5\n        /* \"#utility.yul\":4223:4262   */\n      add\n        /* \"#utility.yul\":4216:4262   */\n      swap2\n      pop\n        /* \"#utility.yul\":3996:4268   */\n      pop\n      swap3\n      swap2\n      pop\n      pop\n      jump\t// out\n        /* \"#utility.yul\":4274:4651   */\n    tag_202:\n      0x00\n        /* \"#utility.yul\":4408:4447   */\n      tag_204\n        /* \"#utility.yul\":4441:4446   */\n      dup3\n        /* \"#utility.yul\":4408:4447   */\n      tag_188\n      jump\t// in\n    tag_204:\n        /* \"#utility.yul\":4463:4552   */\n      tag_205\n        /* \"#utility.yul\":4545:4551   */\n      dup2\n        /* \"#utility.yul\":4540:4543   */\n      dup6\n        /* \"#utility.yul\":4463:4552   */\n      tag_206\n      jump\t// in\n    tag_205:\n        /* \"#utility.yul\":4456:4552   */\n      swap4\n      pop\n        /* \"#utility.yul\":4561:4613   */\n      tag_207\n        /* \"#utility.yul\":4606:4612   */\n      dup2\n        /* \"#utility.yul\":4601:4604   */\n      dup6\n        /* \"#utility.yul\":4594:4598   */\n      0x20\n        /* \"#utility.yul\":4587:4592   */\n      dup7\n        /* \"#utility.yul\":4583:4599   */\n      add\n        /* \"#utility.yul\":4561:4613   */\n      tag_192\n      jump\t// in\n    tag_207:\n        /* \"#utility.yul\":4638:4644   */\n      dup1\n        /* \"#utility.yul\":4633:4636   */\n      dup5\n        /* \"#utility.yul\":4629:4645   */\n      add\n        /* \"#utility.yul\":4622:4645   */\n      swap2\n      pop\n        /* \"#utility.yul\":4384:4651   */\n      pop\n      swap3\n      swap2\n      pop\n      pop\n      jump\t// out\n        /* \"#utility.yul\":4657:4969   */\n    tag_208:\n      0x00\n        /* \"#utility.yul\":4820:4887   */\n      tag_210\n        /* \"#utility.yul\":4884:4886   */\n      0x0e\n        /* \"#utility.yul\":4879:4882   */\n      dup4\n        /* \"#utility.yul\":4820:4887   */\n      tag_199\n      jump\t// in\n    tag_210:\n        /* \"#utility.yul\":4813:4887   */\n      swap2\n      pop\n        /* \"#utility.yul\":4917:4933   */\n      0x44727567206e6f7420666f756e64000000000000000000000000000000000000\n        /* \"#utility.yul\":4913:4914   */\n      0x00\n        /* \"#utility.yul\":4908:4911   */\n      dup4\n        /* \"#utility.yul\":4904:4915   */\n      add\n        /* \"#utility.yul\":4897:4934   */\n      mstore\n        /* \"#utility.yul\":4960:4962   */\n      0x20\n        /* \"#utility.yul\":4955:4958   */\n      dup3\n        /* \"#utility.yul\":4951:4963   */\n      add\n        /* \"#utility.yul\":4944:4963   */\n      swap1\n      pop\n        /* \"#utility.yul\":4803:4969   */\n      swap2\n      swap1\n      pop\n      jump\t// out\n        /* \"#utility.yul\":4975:5290   */\n    tag_211:\n      0x00\n        /* \"#utility.yul\":5138:5205   */\n      tag_213\n        /* \"#utility.yul\":5202:5204   */\n      0x11\n        /* \"#utility.yul\":5197:5200   */\n      dup4\n        /* \"#utility.yul\":5138:5205   */\n      tag_199\n      jump\t// in\n    tag_213:\n        /* \"#utility.yul\":5131:5205   */\n      swap2\n      pop\n        /* \"#utility.yul\":5235:5254   */\n      0x4f6e6c79206d616e756661637475726572000000000000000000000000000000\n        /* \"#utility.yul\":5231:5232   */\n      0x00\n        /* \"#utility.yul\":5226:5229   */\n      dup4\n        /* \"#utility.yul\":5222:5233   */\n      add\n        /* \"#utility.yul\":5215:5255   */\n      mstore\n        /* \"#utility.yul\":5281:5283   */\n      0x20\n        /* \"#utility.yul\":5276:5279   */\n      dup3\n        /* \"#utility.yul\":5272:5284   */\n      add\n        /* \"#utility.yul\":5265:5284   */\n      swap1\n      pop\n        /* \"#utility.yul\":5121:5290   */\n      swap2\n      swap1\n      pop\n      jump\t// out\n        /* \"#utility.yul\":5296:5616   */\n    tag_214:\n      0x00\n        /* \"#utility.yul\":5459:5526   */\n      tag_216\n        /* \"#utility.yul\":5523:5525   */\n      0x16\n        /* \"#utility.yul\":5518:5521   */\n      dup4\n        /* \"#utility.yul\":5459:5526   */\n      tag_199\n      jump\t// in\n    tag_216:\n        /* \"#utility.yul\":5452:5526   */\n      swap2\n      pop\n        /* \"#utility.yul\":5556:5580   */\n      0x4472756720494420616c72656164792065786973747300000000000000000000\n        /* \"#utility.yul\":5552:5553   */\n      0x00\n        /* \"#utility.yul\":5547:5550   */\n      dup4\n        /* \"#utility.yul\":5543:5554   */\n      add\n        /* \"#utility.yul\":5536:5581   */\n      mstore\n        /* \"#utility.yul\":5607:5609   */\n      0x20\n        /* \"#utility.yul\":5602:5605   */\n      dup3\n        /* \"#utility.yul\":5598:5610   */\n      add\n        /* \"#utility.yul\":5591:5610   */\n      swap1\n      pop\n        /* \"#utility.yul\":5442:5616   */\n      swap2\n      swap1\n      pop\n      jump\t// out\n        /* \"#utility.yul\":5690:7408   */\n    tag_217:\n      0x00\n        /* \"#utility.yul\":5835:5839   */\n      0xe0\n        /* \"#utility.yul\":5830:5833   */\n      dup4\n        /* \"#utility.yul\":5826:5840   */\n      add\n        /* \"#utility.yul\":5924:5928   */\n      0x00\n        /* \"#utility.yul\":5917:5922   */\n      dup4\n        /* \"#utility.yul\":5913:5929   */\n      add\n        /* \"#utility.yul\":5907:5930   */\n      mload\n        /* \"#utility.yul\":5977:5980   */\n      dup5\n        /* \"#utility.yul\":5971:5975   */\n      dup3\n        /* \"#utility.yul\":5967:5981   */\n      sub\n        /* \"#utility.yul\":5960:5964   */\n      0x00\n        /* \"#utility.yul\":5955:5958   */\n      dup7\n        /* \"#utility.yul\":5951:5965   */\n      add\n        /* \"#utility.yul\":5944:5982   */\n      mstore\n        /* \"#utility.yul\":6003:6076   */\n      tag_219\n        /* \"#utility.yul\":6071:6075   */\n      dup3\n        /* \"#utility.yul\":6057:6069   */\n      dup3\n        /* \"#utility.yul\":6003:6076   */\n      tag_185\n      jump\t// in\n    tag_219:\n        /* \"#utility.yul\":5995:6076   */\n      swap2\n      pop\n        /* \"#utility.yul\":5850:6087   */\n      pop\n        /* \"#utility.yul\":6173:6177   */\n      0x20\n        /* \"#utility.yul\":6166:6171   */\n      dup4\n        /* \"#utility.yul\":6162:6178   */\n      add\n        /* \"#utility.yul\":6156:6179   */\n      mload\n        /* \"#utility.yul\":6226:6229   */\n      dup5\n        /* \"#utility.yul\":6220:6224   */\n      dup3\n        /* \"#utility.yul\":6216:6230   */\n      sub\n        /* \"#utility.yul\":6209:6213   */\n      0x20\n        /* \"#utility.yul\":6204:6207   */\n      dup7\n        /* \"#utility.yul\":6200:6214   */\n      add\n        /* \"#utility.yul\":6193:6231   */\n      mstore\n        /* \"#utility.yul\":6252:6325   */\n      tag_220\n        /* \"#utility.yul\":6320:6324   */\n      dup3\n        /* \"#utility.yul\":6306:6318   */\n      dup3\n        /* \"#utility.yul\":6252:6325   */\n      tag_185\n      jump\t// in\n    tag_220:\n        /* \"#utility.yul\":6244:6325   */\n      swap2\n      pop\n        /* \"#utility.yul\":6097:6336   */\n      pop\n        /* \"#utility.yul\":6426:6430   */\n      0x40\n        /* \"#utility.yul\":6419:6424   */\n      dup4\n        /* \"#utility.yul\":6415:6431   */\n      add\n        /* \"#utility.yul\":6409:6432   */\n      mload\n        /* \"#utility.yul\":6479:6482   */\n      dup5\n        /* \"#utility.yul\":6473:6477   */\n      dup3\n        /* \"#utility.yul\":6469:6483   */\n      sub\n        /* \"#utility.yul\":6462:6466   */\n      0x40\n        /* \"#utility.yul\":6457:6460   */\n      dup7\n        /* \"#utility.yul\":6453:6467   */\n      add\n        /* \"#utility.yul\":6446:6484   */\n      mstore\n        /* \"#utility.yul\":6505:6578   */\n      tag_221\n        /* \"#utility.yul\":6573:6577   */\n      dup3\n        /* \"#utility.yul\":6559:6571   */\n      dup3\n        /* \"#utility.yul\":6505:6578   */\n      tag_185\n      jump\t// in\n    tag_221:\n        /* \"#utility.yul\":6497:6578   */\n      swap2\n      pop\n        /* \"#utility.yul\":6346:6589   */\n      pop\n        /* \"#utility.yul\":6678:6682   */\n      0x60\n        /* \"#utility.yul\":6671:6676   */\n      dup4\n        /* \"#utility.yul\":6667:6683   */\n      add\n        /* \"#utility.yul\":6661:6684   */\n      mload\n        /* \"#utility.yul\":6731:6734   */\n      dup5\n        /* \"#utility.yul\":6725:6729   */\n      dup3\n        /* \"#utility.yul\":6721:6735   */\n      sub\n        /* \"#utility.yul\":6714:6718   */\n      0x60\n        /* \"#utility.yul\":6709:6712   */\n      dup7\n        /* \"#utility.yul\":6705:6719   */\n      add\n        /* \"#utility.yul\":6698:6736   */\n      mstore\n        /* \"#utility.yul\":6757:6830   */\n      tag_222\n        /* \"#utility.yul\":6825:6829   */\n      dup3\n        /* \"#utility.yul\":6811:6823   */\n      dup3\n        /* \"#utility.yul\":6757:6830   */\n      tag_185\n      jump\t// in\n    tag_222:\n        /* \"#utility.yul\":6749:6830   */\n      swap2\n      pop\n        /* \"#utility.yul\":6599:6841   */\n      pop\n        /* \"#utility.yul\":6933:6937   */\n      0x80\n        /* \"#utility.yul\":6926:6931   */\n      dup4\n        /* \"#utility.yul\":6922:6938   */\n      add\n        /* \"#utility.yul\":6916:6939   */\n      mload\n        /* \"#utility.yul\":6952:7015   */\n      tag_223\n        /* \"#utility.yul\":7009:7013   */\n      0x80\n        /* \"#utility.yul\":7004:7007   */\n      dup7\n        /* \"#utility.yul\":7000:7014   */\n      add\n        /* \"#utility.yul\":6986:6998   */\n      dup3\n        /* \"#utility.yul\":6952:7015   */\n      tag_224\n      jump\t// in\n    tag_223:\n        /* \"#utility.yul\":6851:7025   */\n      pop\n        /* \"#utility.yul\":7109:7113   */\n      0xa0\n        /* \"#utility.yul\":7102:7107   */\n      dup4\n        /* \"#utility.yul\":7098:7114   */\n      add\n        /* \"#utility.yul\":7092:7115   */\n      mload\n        /* \"#utility.yul\":7128:7201   */\n      tag_225\n        /* \"#utility.yul\":7195:7199   */\n      0xa0\n        /* \"#utility.yul\":7190:7193   */\n      dup7\n        /* \"#utility.yul\":7186:7200   */\n      add\n        /* \"#utility.yul\":7172:7184   */\n      dup3\n        /* \"#utility.yul\":7128:7201   */\n      tag_178\n      jump\t// in\n    tag_225:\n        /* \"#utility.yul\":7035:7211   */\n      pop\n        /* \"#utility.yul\":7295:7299   */\n      0xc0\n        /* \"#utility.yul\":7288:7293   */\n      dup4\n        /* \"#utility.yul\":7284:7300   */\n      add\n        /* \"#utility.yul\":7278:7301   */\n      mload\n        /* \"#utility.yul\":7314:7371   */\n      tag_226\n        /* \"#utility.yul\":7365:7369   */\n      0xc0\n        /* \"#utility.yul\":7360:7363   */\n      dup7\n        /* \"#utility.yul\":7356:7370   */\n      add\n        /* \"#utility.yul\":7342:7354   */\n      dup3\n        /* \"#utility.yul\":7314:7371   */\n      tag_171\n      jump\t// in\n    tag_226:\n        /* \"#utility.yul\":7221:7381   */\n      pop\n        /* \"#utility.yul\":7398:7402   */\n      dup1\n        /* \"#utility.yul\":7391:7402   */\n      swap2\n      pop\n        /* \"#utility.yul\":5804:7408   */\n      pop\n      swap3\n      swap2\n      pop\n      pop\n      jump\t// out\n        /* \"#utility.yul\":7414:7522   */\n    tag_224:\n        /* \"#utility.yul\":7491:7515   */\n      tag_228\n        /* \"#utility.yul\":7509:7514   */\n      dup2\n        /* \"#utility.yul\":7491:7515   */\n      tag_229\n      jump\t// in\n    tag_228:\n        /* \"#utility.yul\":7486:7489   */\n      dup3\n        /* \"#utility.yul\":7479:7516   */\n      mstore\n        /* \"#utility.yul\":7469:7522   */\n      pop\n      pop\n      jump\t// out\n        /* \"#utility.yul\":7528:7646   */\n    tag_230:\n        /* \"#utility.yul\":7615:7639   */\n      tag_232\n        /* \"#utility.yul\":7633:7638   */\n      dup2\n        /* \"#utility.yul\":7615:7639   */\n      tag_229\n      jump\t// in\n    tag_232:\n        /* \"#utility.yul\":7610:7613   */\n      dup3\n        /* \"#utility.yul\":7603:7640   */\n      mstore\n        /* \"#utility.yul\":7593:7646   */\n      pop\n      pop\n      jump\t// out\n        /* \"#utility.yul\":7652:7927   */\n    tag_37:\n      0x00\n        /* \"#utility.yul\":7806:7901   */\n      tag_234\n        /* \"#utility.yul\":7897:7900   */\n      dup3\n        /* \"#utility.yul\":7888:7894   */\n      dup5\n        /* \"#utility.yul\":7806:7901   */\n      tag_202\n      jump\t// in\n    tag_234:\n        /* \"#utility.yul\":7799:7901   */\n      swap2\n      pop\n        /* \"#utility.yul\":7918:7921   */\n      dup2\n        /* \"#utility.yul\":7911:7921   */\n      swap1\n      pop\n        /* \"#utility.yul\":7788:7927   */\n      swap3\n      swap2\n      pop\n      pop\n      jump\t// out\n        /* \"#utility.yul\":7933:8155   */\n    tag_30:\n      0x00\n        /* \"#utility.yul\":8064:8066   */\n      0x20\n        /* \"#utility.yul\":8053:8062   */\n      dup3\n        /* \"#utility.yul\":8049:8067   */\n      add\n        /* \"#utility.yul\":8041:8067   */\n      swap1\n      pop\n        /* \"#utility.yul\":8077:8148   */\n      tag_236\n        /* \"#utility.yul\":8145:8146   */\n      0x00\n        /* \"#utility.yul\":8134:8143   */\n      dup4\n        /* \"#utility.yul\":8130:8147   */\n      add\n        /* \"#utility.yul\":8121:8127   */\n      dup5\n        /* \"#utility.yul\":8077:8148   */\n      tag_167\n      jump\t// in\n    tag_236:\n        /* \"#utility.yul\":8031:8155   */\n      swap3\n      swap2\n      pop\n      pop\n      jump\t// out\n        /* \"#utility.yul\":8161:9217   */\n    tag_17:\n      0x00\n        /* \"#utility.yul\":8496:8499   */\n      0xc0\n        /* \"#utility.yul\":8485:8494   */\n      dup3\n        /* \"#utility.yul\":8481:8500   */\n      add\n        /* \"#utility.yul\":8473:8500   */\n      swap1\n      pop\n        /* \"#utility.yul\":8510:8575   */\n      tag_238\n        /* \"#utility.yul\":8572:8573   */\n      0x00\n        /* \"#utility.yul\":8561:8570   */\n      dup4\n        /* \"#utility.yul\":8557:8574   */\n      add\n        /* \"#utility.yul\":8548:8554   */\n      dup10\n        /* \"#utility.yul\":8510:8575   */\n      tag_175\n      jump\t// in\n    tag_238:\n        /* \"#utility.yul\":8622:8631   */\n      dup2\n        /* \"#utility.yul\":8616:8620   */\n      dup2\n        /* \"#utility.yul\":8612:8632   */\n      sub\n        /* \"#utility.yul\":8607:8609   */\n      0x20\n        /* \"#utility.yul\":8596:8605   */\n      dup4\n        /* \"#utility.yul\":8592:8610   */\n      add\n        /* \"#utility.yul\":8585:8633   */\n      mstore\n        /* \"#utility.yul\":8650:8728   */\n      tag_239\n        /* \"#utility.yul\":8723:8727   */\n      dup2\n        /* \"#utility.yul\":8714:8720   */\n      dup9\n        /* \"#utility.yul\":8650:8728   */\n      tag_195\n      jump\t// in\n    tag_239:\n        /* \"#utility.yul\":8642:8728   */\n      swap1\n      pop\n        /* \"#utility.yul\":8775:8784   */\n      dup2\n        /* \"#utility.yul\":8769:8773   */\n      dup2\n        /* \"#utility.yul\":8765:8785   */\n      sub\n        /* \"#utility.yul\":8760:8762   */\n      0x40\n        /* \"#utility.yul\":8749:8758   */\n      dup4\n        /* \"#utility.yul\":8745:8763   */\n      add\n        /* \"#utility.yul\":8738:8786   */\n      mstore\n        /* \"#utility.yul\":8803:8881   */\n      tag_240\n        /* \"#utility.yul\":8876:8880   */\n      dup2\n        /* \"#utility.yul\":8867:8873   */\n      dup8\n        /* \"#utility.yul\":8803:8881   */\n      tag_195\n      jump\t// in\n    tag_240:\n        /* \"#utility.yul\":8795:8881   */\n      swap1\n      pop\n        /* \"#utility.yul\":8928:8937   */\n      dup2\n        /* \"#utility.yul\":8922:8926   */\n      dup2\n        /* \"#utility.yul\":8918:8938   */\n      sub\n        /* \"#utility.yul\":8913:8915   */\n      0x60\n        /* \"#utility.yul\":8902:8911   */\n      dup4\n        /* \"#utility.yul\":8898:8916   */\n      add\n        /* \"#utility.yul\":8891:8939   */\n      mstore\n        /* \"#utility.yul\":8956:9034   */\n      tag_241\n        /* \"#utility.yul\":9029:9033   */\n      dup2\n        /* \"#utility.yul\":9020:9026   */\n      dup7\n        /* \"#utility.yul\":8956:9034   */\n      tag_195\n      jump\t// in\n    tag_241:\n        /* \"#utility.yul\":8948:9034   */\n      swap1\n      pop\n        /* \"#utility.yul\":9044:9117   */\n      tag_242\n        /* \"#utility.yul\":9112:9115   */\n      0x80\n        /* \"#utility.yul\":9101:9110   */\n      dup4\n        /* \"#utility.yul\":9097:9116   */\n      add\n        /* \"#utility.yul\":9088:9094   */\n      dup6\n        /* \"#utility.yul\":9044:9117   */\n      tag_230\n      jump\t// in\n    tag_242:\n        /* \"#utility.yul\":9127:9210   */\n      tag_243\n        /* \"#utility.yul\":9205:9208   */\n      0xa0\n        /* \"#utility.yul\":9194:9203   */\n      dup4\n        /* \"#utility.yul\":9190:9209   */\n      add\n        /* \"#utility.yul\":9181:9187   */\n      dup5\n        /* \"#utility.yul\":9127:9210   */\n      tag_182\n      jump\t// in\n    tag_243:\n        /* \"#utility.yul\":8463:9217   */\n      swap8\n      swap7\n      pop\n      pop\n      pop\n      pop\n      pop\n      pop\n      pop\n      jump\t// out\n        /* \"#utility.yul\":9223:9666   */\n    tag_89:\n      0x00\n        /* \"#utility.yul\":9412:9414   */\n      0x40\n        /* \"#utility.yul\":9401:9410   */\n      dup3\n        /* \"#utility.yul\":9397:9415   */\n      add\n        /* \"#utility.yul\":9389:9415   */\n      swap1\n      pop\n        /* \"#utility.yul\":9461:9470   */\n      dup2\n        /* \"#utility.yul\":9455:9459   */\n      dup2\n        /* \"#utility.yul\":9451:9471   */\n      sub\n        /* \"#utility.yul\":9447:9448   */\n      0x00\n        /* \"#utility.yul\":9436:9445   */\n      dup4\n        /* \"#utility.yul\":9432:9449   */\n      add\n        /* \"#utility.yul\":9425:9472   */\n      mstore\n        /* \"#utility.yul\":9489:9567   */\n      tag_245\n        /* \"#utility.yul\":9562:9566   */\n      dup2\n        /* \"#utility.yul\":9553:9559   */\n      dup6\n        /* \"#utility.yul\":9489:9567   */\n      tag_195\n      jump\t// in\n    tag_245:\n        /* \"#utility.yul\":9481:9567   */\n      swap1\n      pop\n        /* \"#utility.yul\":9577:9659   */\n      tag_246\n        /* \"#utility.yul\":9655:9657   */\n      0x20\n        /* \"#utility.yul\":9644:9653   */\n      dup4\n        /* \"#utility.yul\":9640:9658   */\n      add\n        /* \"#utility.yul\":9631:9637   */\n      dup5\n        /* \"#utility.yul\":9577:9659   */\n      tag_182\n      jump\t// in\n    tag_246:\n        /* \"#utility.yul\":9379:9666   */\n      swap4\n      swap3\n      pop\n      pop\n      pop\n      jump\t// out\n        /* \"#utility.yul\":9672:10387   */\n    tag_50:\n      0x00\n        /* \"#utility.yul\":9919:9921   */\n      0x60\n        /* \"#utility.yul\":9908:9917   */\n      dup3\n        /* \"#utility.yul\":9904:9922   */\n      add\n        /* \"#utility.yul\":9896:9922   */\n      swap1\n      pop\n        /* \"#utility.yul\":9968:9977   */\n      dup2\n        /* \"#utility.yul\":9962:9966   */\n      dup2\n        /* \"#utility.yul\":9958:9978   */\n      sub\n        /* \"#utility.yul\":9954:9955   */\n      0x00\n        /* \"#utility.yul\":9943:9952   */\n      dup4\n        /* \"#utility.yul\":9939:9956   */\n      add\n        /* \"#utility.yul\":9932:9979   */\n      mstore\n        /* \"#utility.yul\":9996:10074   */\n      tag_248\n        /* \"#utility.yul\":10069:10073   */\n      dup2\n        /* \"#utility.yul\":10060:10066   */\n      dup7\n        /* \"#utility.yul\":9996:10074   */\n      tag_195\n      jump\t// in\n    tag_248:\n        /* \"#utility.yul\":9988:10074   */\n      swap1\n      pop\n        /* \"#utility.yul\":10121:10130   */\n      dup2\n        /* \"#utility.yul\":10115:10119   */\n      dup2\n        /* \"#utility.yul\":10111:10131   */\n      sub\n        /* \"#utility.yul\":10106:10108   */\n      0x20\n        /* \"#utility.yul\":10095:10104   */\n      dup4\n        /* \"#utility.yul\":10091:10109   */\n      add\n        /* \"#utility.yul\":10084:10132   */\n      mstore\n        /* \"#utility.yul\":10149:10227   */\n      tag_249\n        /* \"#utility.yul\":10222:10226   */\n      dup2\n        /* \"#utility.yul\":10213:10219   */\n      dup6\n        /* \"#utility.yul\":10149:10227   */\n      tag_195\n      jump\t// in\n    tag_249:\n        /* \"#utility.yul\":10141:10227   */\n      swap1\n      pop\n        /* \"#utility.yul\":10274:10283   */\n      dup2\n        /* \"#utility.yul\":10268:10272   */\n      dup2\n        /* \"#utility.yul\":10264:10284   */\n      sub\n        /* \"#utility.yul\":10259:10261   */\n      0x40\n        /* \"#utility.yul\":10248:10257   */\n      dup4\n        /* \"#utility.yul\":10244:10262   */\n      add\n        /* \"#utility.yul\":10237:10285   */\n      mstore\n        /* \"#utility.yul\":10302:10380   */\n      tag_250\n        /* \"#utility.yul\":10375:10379   */\n      dup2\n        /* \"#utility.yul\":10366:10372   */\n      dup5\n        /* \"#utility.yul\":10302:10380   */\n      tag_195\n      jump\t// in\n    tag_250:\n        /* \"#utility.yul\":10294:10380   */\n      swap1\n      pop\n        /* \"#utility.yul\":9886:10387   */\n      swap5\n      swap4\n      pop\n      pop\n      pop\n      pop\n      jump\t// out\n        /* \"#utility.yul\":10393:10812   */\n    tag_85:\n      0x00\n        /* \"#utility.yul\":10597:10599   */\n      0x20\n        /* \"#utility.yul\":10586:10595   */\n      dup3\n        /* \"#utility.yul\":10582:10600   */\n      add\n        /* \"#utility.yul\":10574:10600   */\n      swap1\n      pop\n        /* \"#utility.yul\":10646:10655   */\n      dup2\n        /* \"#utility.yul\":10640:10644   */\n      dup2\n        /* \"#utility.yul\":10636:10656   */\n      sub\n        /* \"#utility.yul\":10632:10633   */\n      0x00\n        /* \"#utility.yul\":10621:10630   */\n      dup4\n        /* \"#utility.yul\":10617:10634   */\n      add\n        /* \"#utility.yul\":10610:10657   */\n      mstore\n        /* \"#utility.yul\":10674:10805   */\n      tag_252\n        /* \"#utility.yul\":10800:10804   */\n      dup2\n        /* \"#utility.yul\":10674:10805   */\n      tag_208\n      jump\t// in\n    tag_252:\n        /* \"#utility.yul\":10666:10805   */\n      swap1\n      pop\n        /* \"#utility.yul\":10564:10812   */\n      swap2\n      swap1\n      pop\n      jump\t// out\n        /* \"#utility.yul\":10818:11237   */\n    tag_34:\n      0x00\n        /* \"#utility.yul\":11022:11024   */\n      0x20\n        /* \"#utility.yul\":11011:11020   */\n      dup3\n        /* \"#utility.yul\":11007:11025   */\n      add\n        /* \"#utility.yul\":10999:11025   */\n      swap1\n      pop\n        /* \"#utility.yul\":11071:11080   */\n      dup2\n        /* \"#utility.yul\":11065:11069   */\n      dup2\n        /* \"#utility.yul\":11061:11081   */\n      sub\n        /* \"#utility.yul\":11057:11058   */\n      0x00\n        /* \"#utility.yul\":11046:11055   */\n      dup4\n        /* \"#utility.yul\":11042:11059   */\n      add\n        /* \"#utility.yul\":11035:11082   */\n      mstore\n        /* \"#utility.yul\":11099:11230   */\n      tag_254\n        /* \"#utility.yul\":11225:11229   */\n      dup2\n        /* \"#utility.yul\":11099:11230   */\n      tag_211\n      jump\t// in\n    tag_254:\n        /* \"#utility.yul\":11091:11230   */\n      swap1\n      pop\n        /* \"#utility.yul\":10989:11237   */\n      swap2\n      swap1\n      pop\n      jump\t// out\n        /* \"#utility.yul\":11243:11662   */\n    tag_40:\n      0x00\n        /* \"#utility.yul\":11447:11449   */\n      0x20\n        /* \"#utility.yul\":11436:11445   */\n      dup3\n        /* \"#utility.yul\":11432:11450   */\n      add\n        /* \"#utility.yul\":11424:11450   */\n      swap1\n      pop\n        /* \"#utility.yul\":11496:11505   */\n      dup2\n        /* \"#utility.yul\":11490:11494   */\n      dup2\n        /* \"#utility.yul\":11486:11506   */\n      sub\n        /* \"#utility.yul\":11482:11483   */\n      0x00\n        /* \"#utility.yul\":11471:11480   */\n      dup4\n        /* \"#utility.yul\":11467:11484   */\n      add\n        /* \"#utility.yul\":11460:11507   */\n      mstore\n        /* \"#utility.yul\":11524:11655   */\n      tag_256\n        /* \"#utility.yul\":11650:11654   */\n      dup2\n        /* \"#utility.yul\":11524:11655   */\n      tag_214\n      jump\t// in\n    tag_256:\n        /* \"#utility.yul\":11516:11655   */\n      swap1\n      pop\n        /* \"#utility.yul\":11414:11662   */\n      swap2\n      swap1\n      pop\n      jump\t// out\n        /* \"#utility.yul\":11668:12021   */\n    tag_26:\n      0x00\n        /* \"#utility.yul\":11839:11841   */\n      0x20\n        /* \"#utility.yul\":11828:11837   */\n      dup3\n        /* \"#utility.yul\":11824:11842   */\n      add\n        /* \"#utility.yul\":11816:11842   */\n      swap1\n      pop\n        /* \"#utility.yul\":11888:11897   */\n      dup2\n        /* \"#utility.yul\":11882:11886   */\n      dup2\n        /* \"#utility.yul\":11878:11898   */\n      sub\n        /* \"#utility.yul\":11874:11875   */\n      0x00\n        /* \"#utility.yul\":11863:11872   */\n      dup4\n        /* \"#utility.yul\":11859:11876   */\n      add\n        /* \"#utility.yul\":11852:11899   */\n      mstore\n        /* \"#utility.yul\":11916:12014   */\n      tag_258\n        /* \"#utility.yul\":12009:12013   */\n      dup2\n        /* \"#utility.yul\":12000:12006   */\n      dup5\n        /* \"#utility.yul\":11916:12014   */\n      tag_217\n      jump\t// in\n    tag_258:\n        /* \"#utility.yul\":11908:12014   */\n      swap1\n      pop\n        /* \"#utility.yul\":11806:12021   */\n      swap3\n      swap2\n      pop\n      pop\n      jump\t// out\n        /* \"#utility.yul\":12027:12310   */\n    tag_136:\n      0x00\n        /* \"#utility.yul\":12093:12095   */\n      0x40\n        /* \"#utility.yul\":12087:12096   */\n      mload\n        /* \"#utility.yul\":12077:12096   */\n      swap1\n      pop\n        /* \"#utility.yul\":12135:12139   */\n      dup2\n        /* \"#utility.yul\":12127:12133   */\n      dup2\n        /* \"#utility.yul\":12123:12140   */\n      add\n        /* \"#utility.yul\":12242:12248   */\n      dup2\n        /* \"#utility.yul\":12230:12240   */\n      dup2\n        /* \"#utility.yul\":12227:12249   */\n      lt\n        /* \"#utility.yul\":12206:12224   */\n      0xffffffffffffffff\n        /* \"#utility.yul\":12194:12204   */\n      dup3\n        /* \"#utility.yul\":12191:12225   */\n      gt\n        /* \"#utility.yul\":12188:12250   */\n      or\n        /* \"#utility.yul\":12185:12187   */\n      iszero\n      tag_260\n      jumpi\n        /* \"#utility.yul\":12253:12271   */\n      tag_261\n      tag_262\n      jump\t// in\n    tag_261:\n        /* \"#utility.yul\":12185:12187   */\n    tag_260:\n        /* \"#utility.yul\":12293:12303   */\n      dup1\n        /* \"#utility.yul\":12289:12291   */\n      0x40\n        /* \"#utility.yul\":12282:12304   */\n      mstore\n        /* \"#utility.yul\":12067:12310   */\n      pop\n      swap2\n      swap1\n      pop\n      jump\t// out\n        /* \"#utility.yul\":12316:12648   */\n    tag_135:\n      0x00\n        /* \"#utility.yul\":12468:12486   */\n      0xffffffffffffffff\n        /* \"#utility.yul\":12460:12466   */\n      dup3\n        /* \"#utility.yul\":12457:12487   */\n      gt\n        /* \"#utility.yul\":12454:12456   */\n      iszero\n      tag_264\n      jumpi\n        /* \"#utility.yul\":12490:12508   */\n      tag_265\n      tag_262\n      jump\t// in\n    tag_265:\n        /* \"#utility.yul\":12454:12456   */\n    tag_264:\n        /* \"#utility.yul\":12575:12579   */\n      0x1f\n        /* \"#utility.yul\":12571:12580   */\n      not\n        /* \"#utility.yul\":12564:12568   */\n      0x1f\n        /* \"#utility.yul\":12556:12562   */\n      dup4\n        /* \"#utility.yul\":12552:12569   */\n      add\n        /* \"#utility.yul\":12548:12581   */\n      and\n        /* \"#utility.yul\":12540:12581   */\n      swap1\n      pop\n        /* \"#utility.yul\":12636:12640   */\n      0x20\n        /* \"#utility.yul\":12630:12634   */\n      dup2\n        /* \"#utility.yul\":12626:12641   */\n      add\n        /* \"#utility.yul\":12618:12641   */\n      swap1\n      pop\n        /* \"#utility.yul\":12383:12648   */\n      swap2\n      swap1\n      pop\n      jump\t// out\n        /* \"#utility.yul\":12654:12753   */\n    tag_188:\n      0x00\n        /* \"#utility.yul\":12740:12745   */\n      dup2\n        /* \"#utility.yul\":12734:12746   */\n      mload\n        /* \"#utility.yul\":12724:12746   */\n      swap1\n      pop\n        /* \"#utility.yul\":12713:12753   */\n      swap2\n      swap1\n      pop\n      jump\t// out\n        /* \"#utility.yul\":12759:12918   */\n    tag_190:\n      0x00\n        /* \"#utility.yul\":12867:12873   */\n      dup3\n        /* \"#utility.yul\":12862:12865   */\n      dup3\n        /* \"#utility.yul\":12855:12874   */\n      mstore\n        /* \"#utility.yul\":12907:12911   */\n      0x20\n        /* \"#utility.yul\":12902:12905   */\n      dup3\n        /* \"#utility.yul\":12898:12912   */\n      add\n        /* \"#utility.yul\":12883:12912   */\n      swap1\n      pop\n        /* \"#utility.yul\":12845:12918   */\n      swap3\n      swap2\n      pop\n      pop\n      jump\t// out\n        /* \"#utility.yul\":12924:13093   */\n    tag_199:\n      0x00\n        /* \"#utility.yul\":13042:13048   */\n      dup3\n        /* \"#utility.yul\":13037:13040   */\n      dup3\n        /* \"#utility.yul\":13030:13049   */\n      mstore\n        /* \"#utility.yul\":13082:13086   */\n      0x20\n        /* \"#utility.yul\":13077:13080   */\n      dup3\n        /* \"#utility.yul\":13073:13087   */\n      add\n        /* \"#utility.yul\":13058:13087   */\n      swap1\n      pop\n        /* \"#utility.yul\":13020:13093   */\n      swap3\n      swap2\n      pop\n      pop\n      jump\t// out\n        /* \"#utility.yul\":13099:13247   */\n    tag_206:\n      0x00\n        /* \"#utility.yul\":13238:13241   */\n      dup2\n        /* \"#utility.yul\":13223:13241   */\n      swap1\n      pop\n        /* \"#utility.yul\":13213:13247   */\n      swap3\n      swap2\n      pop\n      pop\n      jump\t// out\n        /* \"#utility.yul\":13253:13349   */\n    tag_170:\n      0x00\n        /* \"#utility.yul\":13319:13343   */\n      tag_271\n        /* \"#utility.yul\":13337:13342   */\n      dup3\n        /* \"#utility.yul\":13319:13343   */\n      tag_272\n      jump\t// in\n    tag_271:\n        /* \"#utility.yul\":13308:13343   */\n      swap1\n      pop\n        /* \"#utility.yul\":13298:13349   */\n      swap2\n      swap1\n      pop\n      jump\t// out\n        /* \"#utility.yul\":13355:13445   */\n    tag_174:\n      0x00\n        /* \"#utility.yul\":13432:13437   */\n      dup2\n        /* \"#utility.yul\":13425:13438   */\n      iszero\n        /* \"#utility.yul\":13418:13439   */\n      iszero\n        /* \"#utility.yul\":13407:13439   */\n      swap1\n      pop\n        /* \"#utility.yul\":13397:13445   */\n      swap2\n      swap1\n      pop\n      jump\t// out\n        /* \"#utility.yul\":13451:13586   */\n    tag_274:\n      0x00\n        /* \"#utility.yul\":13529:13534   */\n      dup2\n        /* \"#utility.yul\":13518:13534   */\n      swap1\n      pop\n        /* \"#utility.yul\":13535:13580   */\n      tag_276\n        /* \"#utility.yul\":13574:13579   */\n      dup3\n        /* \"#utility.yul\":13535:13580   */\n      tag_277\n      jump\t// in\n    tag_276:\n        /* \"#utility.yul\":13508:13586   */\n      swap2\n      swap1\n      pop\n      jump\t// out\n        /* \"#utility.yul\":13592:13718   */\n    tag_272:\n      0x00\n        /* \"#utility.yul\":13669:13711   */\n      0xffffffffffffffffffffffffffffffffffffffff\n        /* \"#utility.yul\":13662:13667   */\n      dup3\n        /* \"#utility.yul\":13658:13712   */\n      and\n        /* \"#utility.yul\":13647:13712   */\n      swap1\n      pop\n        /* \"#utility.yul\":13637:13718   */\n      swap2\n      swap1\n      pop\n      jump\t// out\n        /* \"#utility.yul\":13724:13801   */\n    tag_229:\n      0x00\n        /* \"#utility.yul\":13790:13795   */\n      dup2\n        /* \"#utility.yul\":13779:13795   */\n      swap1\n      pop\n        /* \"#utility.yul\":13769:13801   */\n      swap2\n      swap1\n      pop\n      jump\t// out\n        /* \"#utility.yul\":13807:13942   */\n    tag_181:\n      0x00\n        /* \"#utility.yul\":13900:13936   */\n      tag_281\n        /* \"#utility.yul\":13930:13935   */\n      dup3\n        /* \"#utility.yul\":13900:13936   */\n      tag_274\n      jump\t// in\n    tag_281:\n        /* \"#utility.yul\":13887:13936   */\n      swap1\n      pop\n        /* \"#utility.yul\":13877:13942   */\n      swap2\n      swap1\n      pop\n      jump\t// out\n        /* \"#utility.yul\":13948:14102   */\n    tag_139:\n        /* \"#utility.yul\":14032:14038   */\n      dup3\n        /* \"#utility.yul\":14027:14030   */\n      dup2\n        /* \"#utility.yul\":14022:14025   */\n      dup4\n        /* \"#utility.yul\":14009:14039   */\n      calldatacopy\n        /* \"#utility.yul\":14094:14095   */\n      0x00\n        /* \"#utility.yul\":14085:14091   */\n      dup4\n        /* \"#utility.yul\":14080:14083   */\n      dup4\n        /* \"#utility.yul\":14076:14092   */\n      add\n        /* \"#utility.yul\":14069:14096   */\n      mstore\n        /* \"#utility.yul\":13999:14102   */\n      pop\n      pop\n      pop\n      jump\t// out\n        /* \"#utility.yul\":14108:14415   */\n    tag_192:\n        /* \"#utility.yul\":14176:14177   */\n      0x00\n        /* \"#utility.yul\":14186:14299   */\n    tag_284:\n        /* \"#utility.yul\":14200:14206   */\n      dup4\n        /* \"#utility.yul\":14197:14198   */\n      dup2\n        /* \"#utility.yul\":14194:14207   */\n      lt\n        /* \"#utility.yul\":14186:14299   */\n      iszero\n      tag_286\n      jumpi\n        /* \"#utility.yul\":14285:14286   */\n      dup1\n        /* \"#utility.yul\":14280:14283   */\n      dup3\n        /* \"#utility.yul\":14276:14287   */\n      add\n        /* \"#utility.yul\":14270:14288   */\n      mload\n        /* \"#utility.yul\":14266:14267   */\n      dup2\n        /* \"#utility.yul\":14261:14264   */\n      dup5\n        /* \"#utility.yul\":14257:14268   */\n      add\n        /* \"#utility.yul\":14250:14289   */\n      mstore\n        /* \"#utility.yul\":14222:14224   */\n      0x20\n        /* \"#utility.yul\":14219:14220   */\n      dup2\n        /* \"#utility.yul\":14215:14225   */\n      add\n        /* \"#utility.yul\":14210:14225   */\n      swap1\n      pop\n        /* \"#utility.yul\":14186:14299   */\n      jump(tag_284)\n    tag_286:\n        /* \"#utility.yul\":14317:14323   */\n      dup4\n        /* \"#utility.yul\":14314:14315   */\n      dup2\n        /* \"#utility.yul\":14311:14324   */\n      gt\n        /* \"#utility.yul\":14308:14310   */\n      iszero\n      tag_287\n      jumpi\n        /* \"#utility.yul\":14397:14398   */\n      0x00\n        /* \"#utility.yul\":14388:14394   */\n      dup5\n        /* \"#utility.yul\":14383:14386   */\n      dup5\n        /* \"#utility.yul\":14379:14395   */\n      add\n        /* \"#utility.yul\":14372:14399   */\n      mstore\n        /* \"#utility.yul\":14308:14310   */\n    tag_287:\n        /* \"#utility.yul\":14157:14415   */\n      pop\n      pop\n      pop\n      pop\n      jump\t// out\n        /* \"#utility.yul\":14421:14741   */\n    tag_56:\n      0x00\n        /* \"#utility.yul\":14502:14503   */\n      0x02\n        /* \"#utility.yul\":14496:14500   */\n      dup3\n        /* \"#utility.yul\":14492:14504   */\n      div\n        /* \"#utility.yul\":14482:14504   */\n      swap1\n      pop\n        /* \"#utility.yul\":14549:14550   */\n      0x01\n        /* \"#utility.yul\":14543:14547   */\n      dup3\n        /* \"#utility.yul\":14539:14551   */\n      and\n        /* \"#utility.yul\":14570:14588   */\n      dup1\n        /* \"#utility.yul\":14560:14562   */\n      tag_289\n      jumpi\n        /* \"#utility.yul\":14626:14630   */\n      0x7f\n        /* \"#utility.yul\":14618:14624   */\n      dup3\n        /* \"#utility.yul\":14614:14631   */\n      and\n        /* \"#utility.yul\":14604:14631   */\n      swap2\n      pop\n        /* \"#utility.yul\":14560:14562   */\n    tag_289:\n        /* \"#utility.yul\":14688:14690   */\n      0x20\n        /* \"#utility.yul\":14680:14686   */\n      dup3\n        /* \"#utility.yul\":14677:14691   */\n      lt\n        /* \"#utility.yul\":14657:14675   */\n      dup2\n        /* \"#utility.yul\":14654:14692   */\n      eq\n        /* \"#utility.yul\":14651:14653   */\n      iszero\n      tag_290\n      jumpi\n        /* \"#utility.yul\":14707:14725   */\n      tag_291\n      tag_292\n      jump\t// in\n    tag_291:\n        /* \"#utility.yul\":14651:14653   */\n    tag_290:\n        /* \"#utility.yul\":14472:14741   */\n      pop\n      swap2\n      swap1\n      pop\n      jump\t// out\n        /* \"#utility.yul\":14747:14927   */\n    tag_293:\n        /* \"#utility.yul\":14795:14872   */\n      0x4e487b7100000000000000000000000000000000000000000000000000000000\n        /* \"#utility.yul\":14792:14793   */\n      0x00\n        /* \"#utility.yul\":14785:14873   */\n      mstore\n        /* \"#utility.yul\":14892:14896   */\n      0x21\n        /* \"#utility.yul\":14889:14890   */\n      0x04\n        /* \"#utility.yul\":14882:14897   */\n      mstore\n        /* \"#utility.yul\":14916:14920   */\n      0x24\n        /* \"#utility.yul\":14913:14914   */\n      0x00\n        /* \"#utility.yul\":14906:14921   */\n      revert\n        /* \"#utility.yul\":14933:15113   */\n    tag_292:\n        /* \"#utility.yul\":14981:15058   */\n      0x4e487b7100000000000000000000000000000000000000000000000000000000\n        /* \"#utility.yul\":14978:14979   */\n      0x00\n        /* \"#utility.yul\":14971:15059   */\n      mstore\n        /* \"#utility.yul\":15078:15082   */\n      0x22\n        /* \"#utility.yul\":15075:15076   */\n      0x04\n        /* \"#utility.yul\":15068:15083   */\n      mstore\n        /* \"#utility.yul\":15102:15106   */\n      0x24\n        /* \"#utility.yul\":15099:15100   */\n      0x00\n        /* \"#utility.yul\":15092:15107   */\n      revert\n        /* \"#utility.yul\":15119:15299   */\n    tag_262:\n        /* \"#utility.yul\":15167:15244   */\n      0x4e487b7100000000000000000000000000000000000000000000000000000000\n        /* \"#utility.yul\":15164:15165   */\n      0x00\n        /* \"#utility.yul\":15157:15245   */\n      mstore\n        /* \"#utility.yul\":15264:15268   */\n      0x41\n        /* \"#utility.yul\":15261:15262   */\n      0x04\n        /* \"#utility.yul\":15254:15269   */\n      mstore\n        /* \"#utility.yul\":15288:15292   */\n      0x24\n        /* \"#utility.yul\":15285:15286   */\n      0x00\n        /* \"#utility.yul\":15278:15293   */\n      revert\n        /* \"#utility.yul\":15305:15407   */\n    tag_194:\n      0x00\n        /* \"#utility.yul\":15397:15399   */\n      0x1f\n        /* \"#utility.yul\":15393:15400   */\n      not\n        /* \"#utility.yul\":15388:15390   */\n      0x1f\n        /* \"#utility.yul\":15381:15386   */\n      dup4\n        /* \"#utility.yul\":15377:15391   */\n      add\n        /* \"#utility.yul\":15373:15401   */\n      and\n        /* \"#utility.yul\":15363:15401   */\n      swap1\n      pop\n        /* \"#utility.yul\":15353:15407   */\n      swap2\n      swap1\n      pop\n      jump\t// out\n        /* \"#utility.yul\":15413:15530   */\n    tag_277:\n        /* \"#utility.yul\":15498:15499   */\n      0x04\n        /* \"#utility.yul\":15491:15496   */\n      dup2\n        /* \"#utility.yul\":15488:15500   */\n      lt\n        /* \"#utility.yul\":15478:15480   */\n      tag_299\n      jumpi\n        /* \"#utility.yul\":15504:15522   */\n      tag_300\n      tag_293\n      jump\t// in\n    tag_300:\n        /* \"#utility.yul\":15478:15480   */\n    tag_299:\n        /* \"#utility.yul\":15468:15530   */\n      pop\n      jump\t// out\n        /* \"#utility.yul\":15536:15647   */\n    tag_143:\n        /* \"#utility.yul\":15621:15622   */\n      0x04\n        /* \"#utility.yul\":15614:15619   */\n      dup2\n        /* \"#utility.yul\":15611:15623   */\n      lt\n        /* \"#utility.yul\":15601:15603   */\n      tag_302\n      jumpi\n        /* \"#utility.yul\":15637:15638   */\n      0x00\n        /* \"#utility.yul\":15634:15635   */\n      dup1\n        /* \"#utility.yul\":15627:15639   */\n      revert\n        /* \"#utility.yul\":15601:15603   */\n    tag_302:\n        /* \"#utility.yul\":15591:15647   */\n      pop\n      jump\t// out\n\n    auxdata: 0xa2646970667358221220f2af4cd272000114cdbf162f80156ad8942b6fdce82d3c59bcf06a7c5c3b6fcb64736f6c63430008000033\n}\n",
				"bytecode": {
					"linkReferences": {},
					"object": "608060405234801561001057600080fd5b50336000806101000a81548173ffffffffffffffffffffffffffffffffffffffff021916908373ffffffffffffffffffffffffffffffffffffffff16021790555061169f806100606000396000f3fe608060405234801561001057600080fd5b50600436106100575760003560e01c80631b1fd9911461005c5780633b7b0a741461007857806353616982146100ad5780637ecd4492146100c95780638da5cb5b146100f9575b600080fd5b61007660048036038101906100719190610f47565b610117565b005b610092600480360381019061008d9190610eb2565b6103d9565b6040516100a4969594939291906112b9565b60405180910390f35b6100c760048036038101906100c29190610ef3565b6107b5565b005b6100e360048036038101906100de9190610eb2565b61095d565b6040516100f0919061140b565b60405180910390f35b610101610cf7565b60405161010e919061129e565b60405180910390f35b60008054906101000a900473ffffffffffffffffffffffffffffffffffffffff1673ffffffffffffffffffffffffffffffffffffffff163373ffffffffffffffffffffffffffffffffffffffff16146101a5576040517f08c379a000000000000000000000000000000000000000000000000000000000815260040161019c906113cb565b60405180910390fd5b6001846040516101b59190611287565b908152602001604051809103902060050160019054906101000a900460ff1615610214576040517f08c379a000000000000000000000000000000000000000000000000000000000815260040161020b906113eb565b60405180910390fd5b6040518060e0016040528085815260200184815260200183815260200182815260200142815260200160006003811115610277577f4e487b7100000000000000000000000000000000000000000000000000000000600052602160045260246000fd5b8152602001600115158152506001856040516102939190611287565b908152602001604051809103902060008201518160000190805190602001906102bd929190610d1b565b5060208201518160010190805190602001906102da929190610d1b565b5060408201518160020190805190602001906102f7929190610d1b565b506060820151816003019080519060200190610314929190610d1b565b506080820151816004015560a08201518160050160006101000a81548160ff02191690836003811115610370577f4e487b7100000000000000000000000000000000000000000000000000000000600052602160045260246000fd5b021790555060c08201518160050160016101000a81548160ff0219169083151502179055509050507f5778f73fb53529f08b83c7e4181c793147931e5121ba512a81c7b51dd29fd1638484846040516103cb9392919061135f565b60405180910390a150505050565b600060608060606000806001876040516103f39190611287565b908152602001604051809103902060050160019054906101000a900460ff166104625760008060006040518060200160405280600081525091906040518060200160405280600081525091906040518060200160405280600081525091909550955095509550955095506107ac565b60006001886040516104749190611287565b90815260200160405180910390206040518060e001604052908160008201805461049d90611575565b80601f01602080910402602001604051908101604052809291908181526020018280546104c990611575565b80156105165780601f106104eb57610100808354040283529160200191610516565b820191906000526020600020905b8154815290600101906020018083116104f957829003601f168201915b5050505050815260200160018201805461052f90611575565b80601f016020809104026020016040519081016040528092919081815260200182805461055b90611575565b80156105a85780601f1061057d576101008083540402835291602001916105a8565b820191906000526020600020905b81548152906001019060200180831161058b57829003601f168201915b505050505081526020016002820180546105c190611575565b80601f01602080910402602001604051908101604052809291908181526020018280546105ed90611575565b801561063a5780601f1061060f5761010080835404028352916020019161063a565b820191906000526020600020905b81548152906001019060200180831161061d57829003601f168201915b5050505050815260200160038201805461065390611575565b80601f016020809104026020016040519081016040528092919081815260200182805461067f90611575565b80156106cc5780601f106106a1576101008083540402835291602001916106cc565b820191906000526020600020905b8154815290600101906020018083116106af57829003601f168201915b50505050508152602001600482015481526020016005820160009054906101000a900460ff16600381111561072a577f4e487b7100000000000000000000000000000000000000000000000000000000600052602160045260246000fd5b6003811115610762577f4e487b7100000000000000000000000000000000000000000000000000000000600052602160045260246000fd5b81526020016005820160019054906101000a900460ff1615151515815250509050600181602001518260400151836060015184608001518560a00151965096509650965096509650505b91939550919395565b60008054906101000a900473ffffffffffffffffffffffffffffffffffffffff1673ffffffffffffffffffffffffffffffffffffffff163373ffffffffffffffffffffffffffffffffffffffff1614610843576040517f08c379a000000000000000000000000000000000000000000000000000000000815260040161083a906113cb565b60405180910390fd5b6001826040516108539190611287565b908152602001604051809103902060050160019054906101000a900460ff166108b1576040517f08c379a00000000000000000000000000000000000000000000000000000000081526004016108a8906113ab565b60405180910390fd5b806001836040516108c29190611287565b908152602001604051809103902060050160006101000a81548160ff0219169083600381111561091b577f4e487b7100000000000000000000000000000000000000000000000000000000600052602160045260246000fd5b02179055507f4e407d4f938199e743ff3f9c87db0c2b408db2c74b3b83b01299015302ef0532828260405161095192919061132f565b60405180910390a15050565b610965610da1565b6001826040516109759190611287565b908152602001604051809103902060050160019054906101000a900460ff166109d3576040517f08c379a00000000000000000000000000000000000000000000000000000000081526004016109ca906113ab565b60405180910390fd5b6001826040516109e39190611287565b90815260200160405180910390206040518060e0016040529081600082018054610a0c90611575565b80601f0160208091040260200160405190810160405280929190818152602001828054610a3890611575565b8015610a855780601f10610a5a57610100808354040283529160200191610a85565b820191906000526020600020905b815481529060010190602001808311610a6857829003601f168201915b50505050508152602001600182018054610a9e90611575565b80601f0160208091040260200160405190810160405280929190818152602001828054610aca90611575565b8015610b175780601f10610aec57610100808354040283529160200191610b17565b820191906000526020600020905b815481529060010190602001808311610afa57829003601f168201915b50505050508152602001600282018054610b3090611575565b80601f0160208091040260200160405190810160405280929190818152602001828054610b5c90611575565b8015610ba95780601f10610b7e57610100808354040283529160200191610ba9565b820191906000526020600020905b815481529060010190602001808311610b8c57829003601f168201915b50505050508152602001600382018054610bc290611575565b80601f0160208091040260200160405190810160405280929190818152602001828054610bee90611575565b8015610c3b5780601f10610c1057610100808354040283529160200191610c3b565b820191906000526020600020905b815481529060010190602001808311610c1e57829003601f168201915b50505050508152602001600482015481526020016005820160009054906101000a900460ff166003811115610c99577f4e487b7100000000000000000000000000000000000000000000000000000000600052602160045260246000fd5b6003811115610cd1577f4e487b7100000000000000000000000000000000000000000000000000000000600052602160045260246000fd5b81526020016005820160019054906101000a900460ff1615151515815250509050919050565b60008054906101000a900473ffffffffffffffffffffffffffffffffffffffff1681565b828054610d2790611575565b90600052602060002090601f016020900481019282610d495760008555610d90565b82601f10610d6257805160ff1916838001178555610d90565b82800160010185558215610d90579182015b82811115610d8f578251825591602001919060010190610d74565b5b509050610d9d9190610e18565b5090565b6040518060e00160405280606081526020016060815260200160608152602001606081526020016000815260200160006003811115610e09577f4e487b7100000000000000000000000000000000000000000000000000000000600052602160045260246000fd5b81526020016000151581525090565b5b80821115610e31576000816000905550600101610e19565b5090565b6000610e48610e438461145e565b61142d565b905082815260208101848484011115610e6057600080fd5b610e6b848285611533565b509392505050565b600081359050610e8281611659565b92915050565b600082601f830112610e9957600080fd5b8135610ea9848260208601610e35565b91505092915050565b600060208284031215610ec457600080fd5b600082013567ffffffffffffffff811115610ede57600080fd5b610eea84828501610e88565b91505092915050565b60008060408385031215610f0657600080fd5b600083013567ffffffffffffffff811115610f2057600080fd5b610f2c85828601610e88565b9250506020610f3d85828601610e73565b9150509250929050565b60008060008060808587031215610f5d57600080fd5b600085013567ffffffffffffffff811115610f7757600080fd5b610f8387828801610e88565b945050602085013567ffffffffffffffff811115610fa057600080fd5b610fac87828801610e88565b935050604085013567ffffffffffffffff811115610fc957600080fd5b610fd587828801610e88565b925050606085013567ffffffffffffffff811115610ff257600080fd5b610ffe87828801610e88565b91505092959194509250565b611013816114c6565b82525050565b611022816114d8565b82525050565b611031816114d8565b82525050565b61104081611521565b82525050565b61104f81611521565b82525050565b60006110608261148e565b61106a8185611499565b935061107a818560208601611542565b61108381611634565b840191505092915050565b60006110998261148e565b6110a381856114aa565b93506110b3818560208601611542565b6110bc81611634565b840191505092915050565b60006110d28261148e565b6110dc81856114bb565b93506110ec818560208601611542565b80840191505092915050565b6000611105600e836114aa565b91507f44727567206e6f7420666f756e640000000000000000000000000000000000006000830152602082019050919050565b60006111456011836114aa565b91507f4f6e6c79206d616e7566616374757265720000000000000000000000000000006000830152602082019050919050565b60006111856016836114aa565b91507f4472756720494420616c726561647920657869737473000000000000000000006000830152602082019050919050565b600060e08301600083015184820360008601526111d58282611055565b915050602083015184820360208601526111ef8282611055565b915050604083015184820360408601526112098282611055565b915050606083015184820360608601526112238282611055565b91505060808301516112386080860182611269565b5060a083015161124b60a0860182611037565b5060c083015161125e60c0860182611019565b508091505092915050565b61127281611517565b82525050565b61128181611517565b82525050565b600061129382846110c7565b915081905092915050565b60006020820190506112b3600083018461100a565b92915050565b600060c0820190506112ce6000830189611028565b81810360208301526112e0818861108e565b905081810360408301526112f4818761108e565b90508181036060830152611308818661108e565b90506113176080830185611278565b61132460a0830184611046565b979650505050505050565b60006040820190508181036000830152611349818561108e565b90506113586020830184611046565b9392505050565b60006060820190508181036000830152611379818661108e565b9050818103602083015261138d818561108e565b905081810360408301526113a1818461108e565b9050949350505050565b600060208201905081810360008301526113c4816110f8565b9050919050565b600060208201905081810360008301526113e481611138565b9050919050565b6000602082019050818103600083015261140481611178565b9050919050565b6000602082019050818103600083015261142581846111b8565b905092915050565b6000604051905081810181811067ffffffffffffffff8211171561145457611453611605565b5b8060405250919050565b600067ffffffffffffffff82111561147957611478611605565b5b601f19601f8301169050602081019050919050565b600081519050919050565b600082825260208201905092915050565b600082825260208201905092915050565b600081905092915050565b60006114d1826114f7565b9050919050565b60008115159050919050565b60008190506114f282611645565b919050565b600073ffffffffffffffffffffffffffffffffffffffff82169050919050565b6000819050919050565b600061152c826114e4565b9050919050565b82818337600083830152505050565b60005b83811015611560578082015181840152602081019050611545565b8381111561156f576000848401525b50505050565b6000600282049050600182168061158d57607f821691505b602082108114156115a1576115a06115d6565b5b50919050565b7f4e487b7100000000000000000000000000000000000000000000000000000000600052602160045260246000fd5b7f4e487b7100000000000000000000000000000000000000000000000000000000600052602260045260246000fd5b7f4e487b7100000000000000000000000000000000000000000000000000000000600052604160045260246000fd5b6000601f19601f8301169050919050565b60048110611656576116556115a7565b5b50565b6004811061166657600080fd5b5056fea2646970667358221220f2af4cd272000114cdbf162f80156ad8942b6fdce82d3c59bcf06a7c5c3b6fcb64736f6c63430008000033",
					"opcodes": "PUSH1 0x80 PUSH1 0x40 MSTORE CALLVALUE DUP1 ISZERO PUSH2 0x10 JUMPI PUSH1 0x0 DUP1 REVERT JUMPDEST POP CALLER PUSH1 0x0 DUP1 PUSH2 0x100 EXP DUP2 SLOAD DUP2 PUSH20 0xFFFFFFFFFFFFFFFFFFFFFFFFFFFFFFFFFFFFFFFF MUL NOT AND SWAP1 DUP4 PUSH20 0xFFFFFFFFFFFFFFFFFFFFFFFFFFFFFFFFFFFFFFFF AND MUL OR SWAP1 SSTORE POP PUSH2 0x169F DUP1 PUSH2 0x60 PUSH1 0x0 CODECOPY PUSH1 0x0 RETURN INVALID PUSH1 0x80 PUSH1 0x40 MSTORE CALLVALUE DUP1 ISZERO PUSH2 0x10 JUMPI PUSH1 0x0 DUP1 REVERT JUMPDEST POP PUSH1 0x4 CALLDATASIZE LT PUSH2 0x57 JUMPI PUSH1 0x0 CALLDATALOAD PUSH1 0xE0 SHR DUP1 PUSH4 0x1B1FD991 EQ PUSH2 0x5C JUMPI DUP1 PUSH4 0x3B7B0A74 EQ PUSH2 0x78 JUMPI DUP1 PUSH4 0x53616982 EQ PUSH2 0xAD JUMPI DUP1 PUSH4 0x7ECD4492 EQ PUSH2 0xC9 JUMPI DUP1 PUSH4 0x8DA5CB5B EQ PUSH2 0xF9 JUMPI JUMPDEST PUSH1 0x0 DUP1 REVERT JUMPDEST PUSH2 0x76 PUSH1 0x4 DUP1 CALLDATASIZE SUB DUP2 ADD SWAP1 PUSH2 0x71 SWAP2 SWAP1 PUSH2 0xF47 JUMP JUMPDEST PUSH2 0x117 JUMP JUMPDEST STOP JUMPDEST PUSH2 0x92 PUSH1 0x4 DUP1 CALLDATASIZE SUB DUP2 ADD SWAP1 PUSH2 0x8D SWAP2 SWAP1 PUSH2 0xEB2 JUMP JUMPDEST PUSH2 0x3D9 JUMP JUMPDEST PUSH1 0x40 MLOAD PUSH2 0xA4 SWAP7 SWAP6 SWAP5 SWAP4 SWAP3 SWAP2 SWAP1 PUSH2 0x12B9 JUMP JUMPDEST PUSH1 0x40 MLOAD DUP1 SWAP2 SUB SWAP1 RETURN JUMPDEST PUSH2 0xC7 PUSH1 0x4 DUP1 CALLDATASIZE SUB DUP2 ADD SWAP1 PUSH2 0xC2 SWAP2 SWAP1 PUSH2 0xEF3 JUMP JUMPDEST PUSH2 0x7B5 JUMP JUMPDEST STOP JUMPDEST PUSH2 0xE3 PUSH1 0x4 DUP1 CALLDATASIZE SUB DUP2 ADD SWAP1 PUSH2 0xDE SWAP2 SWAP1 PUSH2 0xEB2 JUMP JUMPDEST PUSH2 0x95D JUMP JUMPDEST PUSH1 0x40 MLOAD PUSH2 0xF0 SWAP2 SWAP1 PUSH2 0x140B JUMP JUMPDEST PUSH1 0x40 MLOAD DUP1 SWAP2 SUB SWAP1 RETURN JUMPDEST PUSH2 0x101 PUSH2 0xCF7 JUMP JUMPDEST PUSH1 0x40 MLOAD PUSH2 0x10E SWAP2 SWAP1 PUSH2 0x129E JUMP JUMPDEST PUSH1 0x40 MLOAD DUP1 SWAP2 SUB SWAP1 RETURN JUMPDEST PUSH1 0x0 DUP1 SLOAD SWAP1 PUSH2 0x100 EXP SWAP1 DIV PUSH20 0xFFFFFFFFFFFFFFFFFFFFFFFFFFFFFFFFFFFFFFFF AND PUSH20 0xFFFFFFFFFFFFFFFFFFFFFFFFFFFFFFFFFFFFFFFF AND CALLER PUSH20 0xFFFFFFFFFFFFFFFFFFFFFFFFFFFFFFFFFFFFFFFF AND EQ PUSH2 0x1A5 JUMPI PUSH1 0x40 MLOAD PUSH32 0x8C379A000000000000000000000000000000000000000000000000000000000 DUP2 MSTORE PUSH1 0x4 ADD PUSH2 0x19C SWAP1 PUSH2 0x13CB JUMP JUMPDEST PUSH1 0x40 MLOAD DUP1 SWAP2 SUB SWAP1 REVERT JUMPDEST PUSH1 0x1 DUP5 PUSH1 0x40 MLOAD PUSH2 0x1B5 SWAP2 SWAP1 PUSH2 0x1287 JUMP JUMPDEST SWAP1 DUP2 MSTORE PUSH1 0x20 ADD PUSH1 0x40 MLOAD DUP1 SWAP2 SUB SWAP1 KECCAK256 PUSH1 0x5 ADD PUSH1 0x1 SWAP1 SLOAD SWAP1 PUSH2 0x100 EXP SWAP1 DIV PUSH1 0xFF AND ISZERO PUSH2 0x214 JUMPI PUSH1 0x40 MLOAD PUSH32 0x8C379A000000000000000000000000000000000000000000000000000000000 DUP2 MSTORE PUSH1 0x4 ADD PUSH2 0x20B SWAP1 PUSH2 0x13EB JUMP JUMPDEST PUSH1 0x40 MLOAD DUP1 SWAP2 SUB SWAP1 REVERT JUMPDEST PUSH1 0x40 MLOAD DUP1 PUSH1 0xE0 ADD PUSH1 0x40 MSTORE DUP1 DUP6 DUP2 MSTORE PUSH1 0x20 ADD DUP5 DUP2 MSTORE PUSH1 0x20 ADD DUP4 DUP2 MSTORE PUSH1 0x20 ADD DUP3 DUP2 MSTORE PUSH1 0x20 ADD TIMESTAMP DUP2 MSTORE PUSH1 0x20 ADD PUSH1 0x0 PUSH1 0x3 DUP2 GT ISZERO PUSH2 0x277 JUMPI PUSH32 0x4E487B7100000000000000000000000000000000000000000000000000000000 PUSH1 0x0 MSTORE PUSH1 0x21 PUSH1 0x4 MSTORE PUSH1 0x24 PUSH1 0x0 REVERT JUMPDEST DUP2 MSTORE PUSH1 0x20 ADD PUSH1 0x1 ISZERO ISZERO DUP2 MSTORE POP PUSH1 0x1 DUP6 PUSH1 0x40 MLOAD PUSH2 0x293 SWAP2 SWAP1 PUSH2 0x1287 JUMP JUMPDEST SWAP1 DUP2 MSTORE PUSH1 0x20 ADD PUSH1 0x40 MLOAD DUP1 SWAP2 SUB SWAP1 KECCAK256 PUSH1 0x0 DUP3 ADD MLOAD DUP2 PUSH1 0x0 ADD SWAP1 DUP1 MLOAD SWAP1 PUSH1 0x20 ADD SWAP1 PUSH2 0x2BD SWAP3 SWAP2 SWAP1 PUSH2 0xD1B JUMP JUMPDEST POP PUSH1 0x20 DUP3 ADD MLOAD DUP2 PUSH1 0x1 ADD SWAP1 DUP1 MLOAD SWAP1 PUSH1 0x20 ADD SWAP1 PUSH2 0x2DA SWAP3 SWAP2 SWAP1 PUSH2 0xD1B JUMP JUMPDEST POP PUSH1 0x40 DUP3 ADD MLOAD DUP2 PUSH1 0x2 ADD SWAP1 DUP1 MLOAD SWAP1 PUSH1 0x20 ADD SWAP1 PUSH2 0x2F7 SWAP3 SWAP2 SWAP1 PUSH2 0xD1B JUMP JUMPDEST POP PUSH1 0x60 DUP3 ADD MLOAD DUP2 PUSH1 0x3 ADD SWAP1 DUP1 MLOAD SWAP1 PUSH1 0x20 ADD SWAP1 PUSH2 0x314 SWAP3 SWAP2 SWAP1 PUSH2 0xD1B JUMP JUMPDEST POP PUSH1 0x80 DUP3 ADD MLOAD DUP2 PUSH1 0x4 ADD SSTORE PUSH1 0xA0 DUP3 ADD MLOAD DUP2 PUSH1 0x5 ADD PUSH1 0x0 PUSH2 0x100 EXP DUP2 SLOAD DUP2 PUSH1 0xFF MUL NOT AND SWAP1 DUP4 PUSH1 0x3 DUP2 GT ISZERO PUSH2 0x370 JUMPI PUSH32 0x4E487B7100000000000000000000000000000000000000000000000000000000 PUSH1 0x0 MSTORE PUSH1 0x21 PUSH1 0x4 MSTORE PUSH1 0x24 PUSH1 0x0 REVERT JUMPDEST MUL OR SWAP1 SSTORE POP PUSH1 0xC0 DUP3 ADD MLOAD DUP2 PUSH1 0x5 ADD PUSH1 0x1 PUSH2 0x100 EXP DUP2 SLOAD DUP2 PUSH1 0xFF MUL NOT AND SWAP1 DUP4 ISZERO ISZERO MUL OR SWAP1 SSTORE POP SWAP1 POP POP PUSH32 0x5778F73FB53529F08B83C7E4181C793147931E5121BA512A81C7B51DD29FD163 DUP5 DUP5 DUP5 PUSH1 0x40 MLOAD PUSH2 0x3CB SWAP4 SWAP3 SWAP2 SWAP1 PUSH2 0x135F JUMP JUMPDEST PUSH1 0x40 MLOAD DUP1 SWAP2 SUB SWAP1 LOG1 POP POP POP POP JUMP JUMPDEST PUSH1 0x0 PUSH1 0x60 DUP1 PUSH1 0x60 PUSH1 0x0 DUP1 PUSH1 0x1 DUP8 PUSH1 0x40 MLOAD PUSH2 0x3F3 SWAP2 SWAP1 PUSH2 0x1287 JUMP JUMPDEST SWAP1 DUP2 MSTORE PUSH1 0x20 ADD PUSH1 0x40 MLOAD DUP1 SWAP2 SUB SWAP1 KECCAK256 PUSH1 0x5 ADD PUSH1 0x1 SWAP1 SLOAD SWAP1 PUSH2 0x100 EXP SWAP1 DIV PUSH1 0xFF AND PUSH2 0x462 JUMPI PUSH1 0x0 DUP1 PUSH1 0x0 PUSH1 0x40 MLOAD DUP1 PUSH1 0x20 ADD PUSH1 0x40 MSTORE DUP1 PUSH1 0x0 DUP2 MSTORE POP SWAP2 SWAP1 PUSH1 0x40 MLOAD DUP1 PUSH1 0x20 ADD PUSH1 0x40 MSTORE DUP1 PUSH1 0x0 DUP2 MSTORE POP SWAP2 SWAP1 PUSH1 0x40 MLOAD DUP1 PUSH1 0x20 ADD PUSH1 0x40 MSTORE DUP1 PUSH1 0x0 DUP2 MSTORE POP SWAP2 SWAP1 SWAP6 POP SWAP6 POP SWAP6 POP SWAP6 POP SWAP6 POP SWAP6 POP PUSH2 0x7AC JUMP JUMPDEST PUSH1 0x0 PUSH1 0x1 DUP9 PUSH1 0x40 MLOAD PUSH2 0x474 SWAP2 SWAP1 PUSH2 0x1287 JUMP JUMPDEST SWAP1 DUP2 MSTORE PUSH1 0x20 ADD PUSH1 0x40 MLOAD DUP1 SWAP2 SUB SWAP1 KECCAK256 PUSH1 0x40 MLOAD DUP1 PUSH1 0xE0 ADD PUSH1 0x40 MSTORE SWAP1 DUP2 PUSH1 0x0 DUP3 ADD DUP1 SLOAD PUSH2 0x49D SWAP1 PUSH2 0x1575 JUMP JUMPDEST DUP1 PUSH1 0x1F ADD PUSH1 0x20 DUP1 SWAP2 DIV MUL PUSH1 0x20 ADD PUSH1 0x40 MLOAD SWAP1 DUP2 ADD PUSH1 0x40 MSTORE DUP1 SWAP3 SWAP2 SWAP1 DUP2 DUP2 MSTORE PUSH1 0x20 ADD DUP3 DUP1 SLOAD PUSH2 0x4C9 SWAP1 PUSH2 0x1575 JUMP JUMPDEST DUP1 ISZERO PUSH2 0x516 JUMPI DUP1 PUSH1 0x1F LT PUSH2 0x4EB JUMPI PUSH2 0x100 DUP1 DUP4 SLOAD DIV MUL DUP4 MSTORE SWAP2 PUSH1 0x20 ADD SWAP2 PUSH2 0x516 JUMP JUMPDEST DUP3 ADD SWAP2 SWAP1 PUSH1 0x0 MSTORE PUSH1 0x20 PUSH1 0x0 KECCAK256 SWAP1 JUMPDEST DUP2 SLOAD DUP2 MSTORE SWAP1 PUSH1 0x1 ADD SWAP1 PUSH1 0x20 ADD DUP1 DUP4 GT PUSH2 0x4F9 JUMPI DUP3 SWAP1 SUB PUSH1 0x1F AND DUP3 ADD SWAP2 JUMPDEST POP POP POP POP POP DUP2 MSTORE PUSH1 0x20 ADD PUSH1 0x1 DUP3 ADD DUP1 SLOAD PUSH2 0x52F SWAP1 PUSH2 0x1575 JUMP JUMPDEST DUP1 PUSH1 0x1F ADD PUSH1 0x20 DUP1 SWAP2 DIV MUL PUSH1 0x20 ADD PUSH1 0x40 MLOAD SWAP1 DUP2 ADD PUSH1 0x40 MSTORE DUP1 SWAP3 SWAP2 SWAP1 DUP2 DUP2 MSTORE PUSH1 0x20 ADD DUP3 DUP1 SLOAD PUSH2 0x55B SWAP1 PUSH2 0x1575 JUMP JUMPDEST DUP1 ISZERO PUSH2 0x5A8 JUMPI DUP1 PUSH1 0x1F LT PUSH2 0x57D JUMPI PUSH2 0x100 DUP1 DUP4 SLOAD DIV MUL DUP4 MSTORE SWAP2 PUSH1 0x20 ADD SWAP2 PUSH2 0x5A8 JUMP JUMPDEST DUP3 ADD SWAP2 SWAP1 PUSH1 0x0 MSTORE PUSH1 0x20 PUSH1 0x0 KECCAK256 SWAP1 JUMPDEST DUP2 SLOAD DUP2 MSTORE SWAP1 PUSH1 0x1 ADD SWAP1 PUSH1 0x20 ADD DUP1 DUP4 GT PUSH2 0x58B JUMPI DUP3 SWAP1 SUB PUSH1 0x1F AND DUP3 ADD SWAP2 JUMPDEST POP POP POP POP POP DUP2 MSTORE PUSH1 0x20 ADD PUSH1 0x2 DUP3 ADD DUP1 SLOAD PUSH2 0x5C1 SWAP1 PUSH2 0x1575 JUMP JUMPDEST DUP1 PUSH1 0x1F ADD PUSH1 0x20 DUP1 SWAP2 DIV MUL PUSH1 0x20 ADD PUSH1 0x40 MLOAD SWAP1 DUP2 ADD PUSH1 0x40 MSTORE DUP1 SWAP3 SWAP2 SWAP1 DUP2 DUP2 MSTORE PUSH1 0x20 ADD DUP3 DUP1 SLOAD PUSH2 0x5ED SWAP1 PUSH2 0x1575 JUMP JUMPDEST DUP1 ISZERO PUSH2 0x63A JUMPI DUP1 PUSH1 0x1F LT PUSH2 0x60F JUMPI PUSH2 0x100 DUP1 DUP4 SLOAD DIV MUL DUP4 MSTORE SWAP2 PUSH1 0x20 ADD SWAP2 PUSH2 0x63A JUMP JUMPDEST DUP3 ADD SWAP2 SWAP1 PUSH1 0x0 MSTORE PUSH1 0x20 PUSH1 0x0 KECCAK256 SWAP1 JUMPDEST DUP2 SLOAD DUP2 MSTORE SWAP1 PUSH1 0x1 ADD SWAP1 PUSH1 0x20 ADD DUP1 DUP4 GT PUSH2 0x61D JUMPI DUP3 SWAP1 SUB PUSH1 0x1F AND DUP3 ADD SWAP2 JUMPDEST POP POP POP POP POP DUP2 MSTORE PUSH1 0x20 ADD PUSH1 0x3 DUP3 ADD DUP1 SLOAD PUSH2 0x653 SWAP1 PUSH2 0x1575 JUMP JUMPDEST DUP1 PUSH1 0x1F ADD PUSH1 0x20 DUP1 SWAP2 DIV MUL PUSH1 0x20 ADD PUSH1 0x40 MLOAD SWAP1 DUP2 ADD PUSH1 0x40 MSTORE DUP1 SWAP3 SWAP2 SWAP1 DUP2 DUP2 MSTORE PUSH1 0x20 ADD DUP3 DUP1 SLOAD PUSH2 0x67F SWAP1 PUSH2 0x1575 JUMP JUMPDEST DUP1 ISZERO PUSH2 0x6CC JUMPI DUP1 PUSH1 0x1F LT PUSH2 0x6A1 JUMPI PUSH2 0x100 DUP1 DUP4 SLOAD DIV MUL DUP4 MSTORE SWAP2 PUSH1 0x20 ADD SWAP2 PUSH2 0x6CC JUMP JUMPDEST DUP3 ADD SWAP2 SWAP1 PUSH1 0x0 MSTORE PUSH1 0x20 PUSH1 0x0 KECCAK256 SWAP1 JUMPDEST DUP2 SLOAD DUP2 MSTORE SWAP1 PUSH1 0x1 ADD SWAP1 PUSH1 0x20 ADD DUP1 DUP4 GT PUSH2 0x6AF JUMPI DUP3 SWAP1 SUB PUSH1 0x1F AND DUP3 ADD SWAP2 JUMPDEST POP POP POP POP POP DUP2 MSTORE PUSH1 0x20 ADD PUSH1 0x4 DUP3 ADD SLOAD DUP2 MSTORE PUSH1 0x20 ADD PUSH1 0x5 DUP3 ADD PUSH1 0x0 SWAP1 SLOAD SWAP1 PUSH2 0x100 EXP SWAP1 DIV PUSH1 0xFF AND PUSH1 0x3 DUP2 GT ISZERO PUSH2 0x72A JUMPI PUSH32 0x4E487B7100000000000000000000000000000000000000000000000000000000 PUSH1 0x0 MSTORE PUSH1 0x21 PUSH1 0x4 MSTORE PUSH1 0x24 PUSH1 0x0 REVERT JUMPDEST PUSH1 0x3 DUP2 GT ISZERO PUSH2 0x762 JUMPI PUSH32 0x4E487B7100000000000000000000000000000000000000000000000000000000 PUSH1 0x0 MSTORE PUSH1 0x21 PUSH1 0x4 MSTORE PUSH1 0x24 PUSH1 0x0 REVERT JUMPDEST DUP2 MSTORE PUSH1 0x20 ADD PUSH1 0x5 DUP3 ADD PUSH1 0x1 SWAP1 SLOAD SWAP1 PUSH2 0x100 EXP SWAP1 DIV PUSH1 0xFF AND ISZERO ISZERO ISZERO ISZERO DUP2 MSTORE POP POP SWAP1 POP PUSH1 0x1 DUP2 PUSH1 0x20 ADD MLOAD DUP3 PUSH1 0x40 ADD MLOAD DUP4 PUSH1 0x60 ADD MLOAD DUP5 PUSH1 0x80 ADD MLOAD DUP6 PUSH1 0xA0 ADD MLOAD SWAP7 POP SWAP7 POP SWAP7 POP SWAP7 POP SWAP7 POP SWAP7 POP POP JUMPDEST SWAP2 SWAP4 SWAP6 POP SWAP2 SWAP4 SWAP6 JUMP JUMPDEST PUSH1 0x0 DUP1 SLOAD SWAP1 PUSH2 0x100 EXP SWAP1 DIV PUSH20 0xFFFFFFFFFFFFFFFFFFFFFFFFFFFFFFFFFFFFFFFF AND PUSH20 0xFFFFFFFFFFFFFFFFFFFFFFFFFFFFFFFFFFFFFFFF AND CALLER PUSH20 0xFFFFFFFFFFFFFFFFFFFFFFFFFFFFFFFFFFFFFFFF AND EQ PUSH2 0x843 JUMPI PUSH1 0x40 MLOAD PUSH32 0x8C379A000000000000000000000000000000000000000000000000000000000 DUP2 MSTORE PUSH1 0x4 ADD PUSH2 0x83A SWAP1 PUSH2 0x13CB JUMP JUMPDEST PUSH1 0x40 MLOAD DUP1 SWAP2 SUB SWAP1 REVERT JUMPDEST PUSH1 0x1 DUP3 PUSH1 0x40 MLOAD PUSH2 0x853 SWAP2 SWAP1 PUSH2 0x1287 JUMP JUMPDEST SWAP1 DUP2 MSTORE PUSH1 0x20 ADD PUSH1 0x40 MLOAD DUP1 SWAP2 SUB SWAP1 KECCAK256 PUSH1 0x5 ADD PUSH1 0x1 SWAP1 SLOAD SWAP1 PUSH2 0x100 EXP SWAP1 DIV PUSH1 0xFF AND PUSH2 0x8B1 JUMPI PUSH1 0x40 MLOAD PUSH32 0x8C379A000000000000000000000000000000000000000000000000000000000 DUP2 MSTORE PUSH1 0x4 ADD PUSH2 0x8A8 SWAP1 PUSH2 0x13AB JUMP JUMPDEST PUSH1 0x40 MLOAD DUP1 SWAP2 SUB SWAP1 REVERT JUMPDEST DUP1 PUSH1 0x1 DUP4 PUSH1 0x40 MLOAD PUSH2 0x8C2 SWAP2 SWAP1 PUSH2 0x1287 JUMP JUMPDEST SWAP1 DUP2 MSTORE PUSH1 0x20 ADD PUSH1 0x40 MLOAD DUP1 SWAP2 SUB SWAP1 KECCAK256 PUSH1 0x5 ADD PUSH1 0x0 PUSH2 0x100 EXP DUP2 SLOAD DUP2 PUSH1 0xFF MUL NOT AND SWAP1 DUP4 PUSH1 0x3 DUP2 GT ISZERO PUSH2 0x91B JUMPI PUSH32 0x4E487B7100000000000000000000000000000000000000000000000000000000 PUSH1 0x0 MSTORE PUSH1 0x21 PUSH1 0x4 MSTORE PUSH1 0x24 PUSH1 0x0 REVERT JUMPDEST MUL OR SWAP1 SSTORE POP PUSH32 0x4E407D4F938199E743FF3F9C87DB0C2B408DB2C74B3B83B01299015302EF0532 DUP3 DUP3 PUSH1 0x40 MLOAD PUSH2 0x951 SWAP3 SWAP2 SWAP1 PUSH2 0x132F JUMP JUMPDEST PUSH1 0x40 MLOAD DUP1 SWAP2 SUB SWAP1 LOG1 POP POP JUMP JUMPDEST PUSH2 0x965 PUSH2 0xDA1 JUMP JUMPDEST PUSH1 0x1 DUP3 PUSH1 0x40 MLOAD PUSH2 0x975 SWAP2 SWAP1 PUSH2 0x1287 JUMP JUMPDEST SWAP1 DUP2 MSTORE PUSH1 0x20 ADD PUSH1 0x40 MLOAD DUP1 SWAP2 SUB SWAP1 KECCAK256 PUSH1 0x5 ADD PUSH1 0x1 SWAP1 SLOAD SWAP1 PUSH2 0x100 EXP SWAP1 DIV PUSH1 0xFF AND PUSH2 0x9D3 JUMPI PUSH1 0x40 MLOAD PUSH32 0x8C379A000000000000000000000000000000000000000000000000000000000 DUP2 MSTORE PUSH1 0x4 ADD PUSH2 0x9CA SWAP1 PUSH2 0x13AB JUMP JUMPDEST PUSH1 0x40 MLOAD DUP1 SWAP2 SUB SWAP1 REVERT JUMPDEST PUSH1 0x1 DUP3 PUSH1 0x40 MLOAD PUSH2 0x9E3 SWAP2 SWAP1 PUSH2 0x1287 JUMP JUMPDEST SWAP1 DUP2 MSTORE PUSH1 0x20 ADD PUSH1 0x40 MLOAD DUP1 SWAP2 SUB SWAP1 KECCAK256 PUSH1 0x40 MLOAD DUP1 PUSH1 0xE0 ADD PUSH1 0x40 MSTORE SWAP1 DUP2 PUSH1 0x0 DUP3 ADD DUP1 SLOAD PUSH2 0xA0C SWAP1 PUSH2 0x1575 JUMP JUMPDEST DUP1 PUSH1 0x1F ADD PUSH1 0x20 DUP1 SWAP2 DIV MUL PUSH1 0x20 ADD PUSH1 0x40 MLOAD SWAP1 DUP2 ADD PUSH1 0x40 MSTORE DUP1 SWAP3 SWAP2 SWAP1 DUP2 DUP2 MSTORE PUSH1 0x20 ADD DUP3 DUP1 SLOAD PUSH2 0xA38 SWAP1 PUSH2 0x1575 JUMP JUMPDEST DUP1 ISZERO PUSH2 0xA85 JUMPI DUP1 PUSH1 0x1F LT PUSH2 0xA5A JUMPI PUSH2 0x100 DUP1 DUP4 SLOAD DIV MUL DUP4 MSTORE SWAP2 PUSH1 0x20 ADD SWAP2 PUSH2 0xA85 JUMP JUMPDEST DUP3 ADD SWAP2 SWAP1 PUSH1 0x0 MSTORE PUSH1 0x20 PUSH1 0x0 KECCAK256 SWAP1 JUMPDEST DUP2 SLOAD DUP2 MSTORE SWAP1 PUSH1 0x1 ADD SWAP1 PUSH1 0x20 ADD DUP1 DUP4 GT PUSH2 0xA68 JUMPI DUP3 SWAP1 SUB PUSH1 0x1F AND DUP3 ADD SWAP2 JUMPDEST POP POP POP POP POP DUP2 MSTORE PUSH1 0x20 ADD PUSH1 0x1 DUP3 ADD DUP1 SLOAD PUSH2 0xA9E SWAP1 PUSH2 0x1575 JUMP JUMPDEST DUP1 PUSH1 0x1F ADD PUSH1 0x20 DUP1 SWAP2 DIV MUL PUSH1 0x20 ADD PUSH1 0x40 MLOAD SWAP1 DUP2 ADD PUSH1 0x40 MSTORE DUP1 SWAP3 SWAP2 SWAP1 DUP2 DUP2 MSTORE PUSH1 0x20 ADD DUP3 DUP1 SLOAD PUSH2 0xACA SWAP1 PUSH2 0x1575 JUMP JUMPDEST DUP1 ISZERO PUSH2 0xB17 JUMPI DUP1 PUSH1 0x1F LT PUSH2 0xAEC JUMPI PUSH2 0x100 DUP1 DUP4 SLOAD DIV MUL DUP4 MSTORE SWAP2 PUSH1 0x20 ADD SWAP2 PUSH2 0xB17 JUMP JUMPDEST DUP3 ADD SWAP2 SWAP1 PUSH1 0x0 MSTORE PUSH1 0x20 PUSH1 0x0 KECCAK256 SWAP1 JUMPDEST DUP2 SLOAD DUP2 MSTORE SWAP1 PUSH1 0x1 ADD SWAP1 PUSH1 0x20 ADD DUP1 DUP4 GT PUSH2 0xAFA JUMPI DUP3 SWAP1 SUB PUSH1 0x1F AND DUP3 ADD SWAP2 JUMPDEST POP POP POP POP POP DUP2 MSTORE PUSH1 0x20 ADD PUSH1 0x2 DUP3 ADD DUP1 SLOAD PUSH2 0xB30 SWAP1 PUSH2 0x1575 JUMP JUMPDEST DUP1 PUSH1 0x1F ADD PUSH1 0x20 DUP1 SWAP2 DIV MUL PUSH1 0x20 ADD PUSH1 0x40 MLOAD SWAP1 DUP2 ADD PUSH1 0x40 MSTORE DUP1 SWAP3 SWAP2 SWAP1 DUP2 DUP2 MSTORE PUSH1 0x20 ADD DUP3 DUP1 SLOAD PUSH2 0xB5C SWAP1 PUSH2 0x1575 JUMP JUMPDEST DUP1 ISZERO PUSH2 0xBA9 JUMPI DUP1 PUSH1 0x1F LT PUSH2 0xB7E JUMPI PUSH2 0x100 DUP1 DUP4 SLOAD DIV MUL DUP4 MSTORE SWAP2 PUSH1 0x20 ADD SWAP2 PUSH2 0xBA9 JUMP JUMPDEST DUP3 ADD SWAP2 SWAP1 PUSH1 0x0 MSTORE PUSH1 0x20 PUSH1 0x0 KECCAK256 SWAP1 JUMPDEST DUP2 SLOAD DUP2 MSTORE SWAP1 PUSH1 0x1 ADD SWAP1 PUSH1 0x20 ADD DUP1 DUP4 GT PUSH2 0xB8C JUMPI DUP3 SWAP1 SUB PUSH1 0x1F AND DUP3 ADD SWAP2 JUMPDEST POP POP POP POP POP DUP2 MSTORE PUSH1 0x20 ADD PUSH1 0x3 DUP3 ADD DUP1 SLOAD PUSH2 0xBC2 SWAP1 PUSH2 0x1575 JUMP JUMPDEST DUP1 PUSH1 0x1F ADD PUSH1 0x20 DUP1 SWAP2 DIV MUL PUSH1 0x20 ADD PUSH1 0x40 MLOAD SWAP1 DUP2 ADD PUSH1 0x40 MSTORE DUP1 SWAP3 SWAP2 SWAP1 DUP2 DUP2 MSTORE PUSH1 0x20 ADD DUP3 DUP1 SLOAD PUSH2 0xBEE SWAP1 PUSH2 0x1575 JUMP JUMPDEST DUP1 ISZERO PUSH2 0xC3B JUMPI DUP1 PUSH1 0x1F LT PUSH2 0xC10 JUMPI PUSH2 0x100 DUP1 DUP4 SLOAD DIV MUL DUP4 MSTORE SWAP2 PUSH1 0x20 ADD SWAP2 PUSH2 0xC3B JUMP JUMPDEST DUP3 ADD SWAP2 SWAP1 PUSH1 0x0 MSTORE PUSH1 0x20 PUSH1 0x0 KECCAK256 SWAP1 JUMPDEST DUP2 SLOAD DUP2 MSTORE SWAP1 PUSH1 0x1 ADD SWAP1 PUSH1 0x20 ADD DUP1 DUP4 GT PUSH2 0xC1E JUMPI DUP3 SWAP1 SUB PUSH1 0x1F AND DUP3 ADD SWAP2 JUMPDEST POP POP POP POP POP DUP2 MSTORE PUSH1 0x20 ADD PUSH1 0x4 DUP3 ADD SLOAD DUP2 MSTORE PUSH1 0x20 ADD PUSH1 0x5 DUP3 ADD PUSH1 0x0 SWAP1 SLOAD SWAP1 PUSH2 0x100 EXP SWAP1 DIV PUSH1 0xFF AND PUSH1 0x3 DUP2 GT ISZERO PUSH2 0xC99 JUMPI PUSH32 0x4E487B7100000000000000000000000000000000000000000000000000000000 PUSH1 0x0 MSTORE PUSH1 0x21 PUSH1 0x4 MSTORE PUSH1 0x24 PUSH1 0x0 REVERT JUMPDEST PUSH1 0x3 DUP2 GT ISZERO PUSH2 0xCD1 JUMPI PUSH32 0x4E487B7100000000000000000000000000000000000000000000000000000000 PUSH1 0x0 MSTORE PUSH1 0x21 PUSH1 0x4 MSTORE PUSH1 0x24 PUSH1 0x0 REVERT JUMPDEST DUP2 MSTORE PUSH1 0x20 ADD PUSH1 0x5 DUP3 ADD PUSH1 0x1 SWAP1 SLOAD SWAP1 PUSH2 0x100 EXP SWAP1 DIV PUSH1 0xFF AND ISZERO ISZERO ISZERO ISZERO DUP2 MSTORE POP POP SWAP1 POP SWAP2 SWAP1 POP JUMP JUMPDEST PUSH1 0x0 DUP1 SLOAD SWAP1 PUSH2 0x100 EXP SWAP1 DIV PUSH20 0xFFFFFFFFFFFFFFFFFFFFFFFFFFFFFFFFFFFFFFFF AND DUP2 JUMP JUMPDEST DUP3 DUP1 SLOAD PUSH2 0xD27 SWAP1 PUSH2 0x1575 JUMP JUMPDEST SWAP1 PUSH1 0x0 MSTORE PUSH1 0x20 PUSH1 0x0 KECCAK256 SWAP1 PUSH1 0x1F ADD PUSH1 0x20 SWAP1 DIV DUP2 ADD SWAP3 DUP3 PUSH2 0xD49 JUMPI PUSH1 0x0 DUP6 SSTORE PUSH2 0xD90 JUMP JUMPDEST DUP3 PUSH1 0x1F LT PUSH2 0xD62 JUMPI DUP1 MLOAD PUSH1 0xFF NOT AND DUP4 DUP1 ADD OR DUP6 SSTORE PUSH2 0xD90 JUMP JUMPDEST DUP3 DUP1 ADD PUSH1 0x1 ADD DUP6 SSTORE DUP3 ISZERO PUSH2 0xD90 JUMPI SWAP2 DUP3 ADD JUMPDEST DUP3 DUP2 GT ISZERO PUSH2 0xD8F JUMPI DUP3 MLOAD DUP3 SSTORE SWAP2 PUSH1 0x20 ADD SWAP2 SWAP1 PUSH1 0x1 ADD SWAP1 PUSH2 0xD74 JUMP JUMPDEST JUMPDEST POP SWAP1 POP PUSH2 0xD9D SWAP2 SWAP1 PUSH2 0xE18 JUMP JUMPDEST POP SWAP1 JUMP JUMPDEST PUSH1 0x40 MLOAD DUP1 PUSH1 0xE0 ADD PUSH1 0x40 MSTORE DUP1 PUSH1 0x60 DUP2 MSTORE PUSH1 0x20 ADD PUSH1 0x60 DUP2 MSTORE PUSH1 0x20 ADD PUSH1 0x60 DUP2 MSTORE PUSH1 0x20 ADD PUSH1 0x60 DUP2 MSTORE PUSH1 0x20 ADD PUSH1 0x0 DUP2 MSTORE PUSH1 0x20 ADD PUSH1 0x0 PUSH1 0x3 DUP2 GT ISZERO PUSH2 0xE09 JUMPI PUSH32 0x4E487B7100000000000000000000000000000000000000000000000000000000 PUSH1 0x0 MSTORE PUSH1 0x21 PUSH1 0x4 MSTORE PUSH1 0x24 PUSH1 0x0 REVERT JUMPDEST DUP2 MSTORE PUSH1 0x20 ADD PUSH1 0x0 ISZERO ISZERO DUP2 MSTORE POP SWAP1 JUMP JUMPDEST JUMPDEST DUP1 DUP3 GT ISZERO PUSH2 0xE31 JUMPI PUSH1 0x0 DUP2 PUSH1 0x0 SWAP1 SSTORE POP PUSH1 0x1 ADD PUSH2 0xE19 JUMP JUMPDEST POP SWAP1 JUMP JUMPDEST PUSH1 0x0 PUSH2 0xE48 PUSH2 0xE43 DUP5 PUSH2 0x145E JUMP JUMPDEST PUSH2 0x142D JUMP JUMPDEST SWAP1 POP DUP3 DUP2 MSTORE PUSH1 0x20 DUP2 ADD DUP5 DUP5 DUP5 ADD GT ISZERO PUSH2 0xE60 JUMPI PUSH1 0x0 DUP1 REVERT JUMPDEST PUSH2 0xE6B DUP5 DUP3 DUP6 PUSH2 0x1533 JUMP JUMPDEST POP SWAP4 SWAP3 POP POP POP JUMP JUMPDEST PUSH1 0x0 DUP2 CALLDATALOAD SWAP1 POP PUSH2 0xE82 DUP2 PUSH2 0x1659 JUMP JUMPDEST SWAP3 SWAP2 POP POP JUMP JUMPDEST PUSH1 0x0 DUP3 PUSH1 0x1F DUP4 ADD SLT PUSH2 0xE99 JUMPI PUSH1 0x0 DUP1 REVERT JUMPDEST DUP2 CALLDATALOAD PUSH2 0xEA9 DUP5 DUP3 PUSH1 0x20 DUP7 ADD PUSH2 0xE35 JUMP JUMPDEST SWAP2 POP POP SWAP3 SWAP2 POP POP JUMP JUMPDEST PUSH1 0x0 PUSH1 0x20 DUP3 DUP5 SUB SLT ISZERO PUSH2 0xEC4 JUMPI PUSH1 0x0 DUP1 REVERT JUMPDEST PUSH1 0x0 DUP3 ADD CALLDATALOAD PUSH8 0xFFFFFFFFFFFFFFFF DUP2 GT ISZERO PUSH2 0xEDE JUMPI PUSH1 0x0 DUP1 REVERT JUMPDEST PUSH2 0xEEA DUP5 DUP3 DUP6 ADD PUSH2 0xE88 JUMP JUMPDEST SWAP2 POP POP SWAP3 SWAP2 POP POP JUMP JUMPDEST PUSH1 0x0 DUP1 PUSH1 0x40 DUP4 DUP6 SUB SLT ISZERO PUSH2 0xF06 JUMPI PUSH1 0x0 DUP1 REVERT JUMPDEST PUSH1 0x0 DUP4 ADD CALLDATALOAD PUSH8 0xFFFFFFFFFFFFFFFF DUP2 GT ISZERO PUSH2 0xF20 JUMPI PUSH1 0x0 DUP1 REVERT JUMPDEST PUSH2 0xF2C DUP6 DUP3 DUP7 ADD PUSH2 0xE88 JUMP JUMPDEST SWAP3 POP POP PUSH1 0x20 PUSH2 0xF3D DUP6 DUP3 DUP7 ADD PUSH2 0xE73 JUMP JUMPDEST SWAP2 POP POP SWAP3 POP SWAP3 SWAP1 POP JUMP JUMPDEST PUSH1 0x0 DUP1 PUSH1 0x0 DUP1 PUSH1 0x80 DUP6 DUP8 SUB SLT ISZERO PUSH2 0xF5D JUMPI PUSH1 0x0 DUP1 REVERT JUMPDEST PUSH1 0x0 DUP6 ADD CALLDATALOAD PUSH8 0xFFFFFFFFFFFFFFFF DUP2 GT ISZERO PUSH2 0xF77 JUMPI PUSH1 0x0 DUP1 REVERT JUMPDEST PUSH2 0xF83 DUP8 DUP3 DUP9 ADD PUSH2 0xE88 JUMP JUMPDEST SWAP5 POP POP PUSH1 0x20 DUP6 ADD CALLDATALOAD PUSH8 0xFFFFFFFFFFFFFFFF DUP2 GT ISZERO PUSH2 0xFA0 JUMPI PUSH1 0x0 DUP1 REVERT JUMPDEST PUSH2 0xFAC DUP8 DUP3 DUP9 ADD PUSH2 0xE88 JUMP JUMPDEST SWAP4 POP POP PUSH1 0x40 DUP6 ADD CALLDATALOAD PUSH8 0xFFFFFFFFFFFFFFFF DUP2 GT ISZERO PUSH2 0xFC9 JUMPI PUSH1 0x0 DUP1 REVERT JUMPDEST PUSH2 0xFD5 DUP8 DUP3 DUP9 ADD PUSH2 0xE88 JUMP JUMPDEST SWAP3 POP POP PUSH1 0x60 DUP6 ADD CALLDATALOAD PUSH8 0xFFFFFFFFFFFFFFFF DUP2 GT ISZERO PUSH2 0xFF2 JUMPI PUSH1 0x0 DUP1 REVERT JUMPDEST PUSH2 0xFFE DUP8 DUP3 DUP9 ADD PUSH2 0xE88 JUMP JUMPDEST SWAP2 POP POP SWAP3 SWAP6 SWAP2 SWAP5 POP SWAP3 POP JUMP JUMPDEST PUSH2 0x1013 DUP2 PUSH2 0x14C6 JUMP JUMPDEST DUP3 MSTORE POP POP JUMP JUMPDEST PUSH2 0x1022 DUP2 PUSH2 0x14D8 JUMP JUMPDEST DUP3 MSTORE POP POP JUMP JUMPDEST PUSH2 0x1031 DUP2 PUSH2 0x14D8 JUMP JUMPDEST DUP3 MSTORE POP POP JUMP JUMPDEST PUSH2 0x1040 DUP2 PUSH2 0x1521 JUMP JUMPDEST DUP3 MSTORE POP POP JUMP JUMPDEST PUSH2 0x104F DUP2 PUSH2 0x1521 JUMP JUMPDEST DUP3 MSTORE POP POP JUMP JUMPDEST PUSH1 0x0 PUSH2 0x1060 DUP3 PUSH2 0x148E JUMP JUMPDEST PUSH2 0x106A DUP2 DUP6 PUSH2 0x1499 JUMP JUMPDEST SWAP4 POP PUSH2 0x107A DUP2 DUP6 PUSH1 0x20 DUP7 ADD PUSH2 0x1542 JUMP JUMPDEST PUSH2 0x1083 DUP2 PUSH2 0x1634 JUMP JUMPDEST DUP5 ADD SWAP2 POP POP SWAP3 SWAP2 POP POP JUMP JUMPDEST PUSH1 0x0 PUSH2 0x1099 DUP3 PUSH2 0x148E JUMP JUMPDEST PUSH2 0x10A3 DUP2 DUP6 PUSH2 0x14AA JUMP JUMPDEST SWAP4 POP PUSH2 0x10B3 DUP2 DUP6 PUSH1 0x20 DUP7 ADD PUSH2 0x1542 JUMP JUMPDEST PUSH2 0x10BC DUP2 PUSH2 0x1634 JUMP JUMPDEST DUP5 ADD SWAP2 POP POP SWAP3 SWAP2 POP POP JUMP JUMPDEST PUSH1 0x0 PUSH2 0x10D2 DUP3 PUSH2 0x148E JUMP JUMPDEST PUSH2 0x10DC DUP2 DUP6 PUSH2 0x14BB JUMP JUMPDEST SWAP4 POP PUSH2 0x10EC DUP2 DUP6 PUSH1 0x20 DUP7 ADD PUSH2 0x1542 JUMP JUMPDEST DUP1 DUP5 ADD SWAP2 POP POP SWAP3 SWAP2 POP POP JUMP JUMPDEST PUSH1 0x0 PUSH2 0x1105 PUSH1 0xE DUP4 PUSH2 0x14AA JUMP JUMPDEST SWAP2 POP PUSH32 0x44727567206E6F7420666F756E64000000000000000000000000000000000000 PUSH1 0x0 DUP4 ADD MSTORE PUSH1 0x20 DUP3 ADD SWAP1 POP SWAP2 SWAP1 POP JUMP JUMPDEST PUSH1 0x0 PUSH2 0x1145 PUSH1 0x11 DUP4 PUSH2 0x14AA JUMP JUMPDEST SWAP2 POP PUSH32 0x4F6E6C79206D616E756661637475726572000000000000000000000000000000 PUSH1 0x0 DUP4 ADD MSTORE PUSH1 0x20 DUP3 ADD SWAP1 POP SWAP2 SWAP1 POP JUMP JUMPDEST PUSH1 0x0 PUSH2 0x1185 PUSH1 0x16 DUP4 PUSH2 0x14AA JUMP JUMPDEST SWAP2 POP PUSH32 0x4472756720494420616C72656164792065786973747300000000000000000000 PUSH1 0x0 DUP4 ADD MSTORE PUSH1 0x20 DUP3 ADD SWAP1 POP SWAP2 SWAP1 POP JUMP JUMPDEST PUSH1 0x0 PUSH1 0xE0 DUP4 ADD PUSH1 0x0 DUP4 ADD MLOAD DUP5 DUP3 SUB PUSH1 0x0 DUP7 ADD MSTORE PUSH2 0x11D5 DUP3 DUP3 PUSH2 0x1055 JUMP JUMPDEST SWAP2 POP POP PUSH1 0x20 DUP4 ADD MLOAD DUP5 DUP3 SUB PUSH1 0x20 DUP7 ADD MSTORE PUSH2 0x11EF DUP3 DUP3 PUSH2 0x1055 JUMP JUMPDEST SWAP2 POP POP PUSH1 0x40 DUP4 ADD MLOAD DUP5 DUP3 SUB PUSH1 0x40 DUP7 ADD MSTORE PUSH2 0x1209 DUP3 DUP3 PUSH2 0x1055 JUMP JUMPDEST SWAP2 POP POP PUSH1 0x60 DUP4 ADD MLOAD DUP5 DUP3 SUB PUSH1 0x60 DUP7 ADD MSTORE PUSH2 0x1223 DUP3 DUP3 PUSH2 0x1055 JUMP JUMPDEST SWAP2 POP POP PUSH1 0x80 DUP4 ADD MLOAD PUSH2 0x1238 PUSH1 0x80 DUP7 ADD DUP3 PUSH2 0x1269 JUMP JUMPDEST POP PUSH1 0xA0 DUP4 ADD MLOAD PUSH2 0x124B PUSH1 0xA0 DUP7 ADD DUP3 PUSH2 0x1037 JUMP JUMPDEST POP PUSH1 0xC0 DUP4 ADD MLOAD PUSH2 0x125E PUSH1 0xC0 DUP7 ADD DUP3 PUSH2 0x1019 JUMP JUMPDEST POP DUP1 SWAP2 POP POP SWAP3 SWAP2 POP POP JUMP JUMPDEST PUSH2 0x1272 DUP2 PUSH2 0x1517 JUMP JUMPDEST DUP3 MSTORE POP POP JUMP JUMPDEST PUSH2 0x1281 DUP2 PUSH2 0x1517 JUMP JUMPDEST DUP3 MSTORE POP POP JUMP JUMPDEST PUSH1 0x0 PUSH2 0x1293 DUP3 DUP5 PUSH2 0x10C7 JUMP JUMPDEST SWAP2 POP DUP2 SWAP1 POP SWAP3 SWAP2 POP POP JUMP JUMPDEST PUSH1 0x0 PUSH1 0x20 DUP3 ADD SWAP1 POP PUSH2 0x12B3 PUSH1 0x0 DUP4 ADD DUP5 PUSH2 0x100A JUMP JUMPDEST SWAP3 SWAP2 POP POP JUMP JUMPDEST PUSH1 0x0 PUSH1 0xC0 DUP3 ADD SWAP1 POP PUSH2 0x12CE PUSH1 0x0 DUP4 ADD DUP10 PUSH2 0x1028 JUMP JUMPDEST DUP2 DUP2 SUB PUSH1 0x20 DUP4 ADD MSTORE PUSH2 0x12E0 DUP2 DUP9 PUSH2 0x108E JUMP JUMPDEST SWAP1 POP DUP2 DUP2 SUB PUSH1 0x40 DUP4 ADD MSTORE PUSH2 0x12F4 DUP2 DUP8 PUSH2 0x108E JUMP JUMPDEST SWAP1 POP DUP2 DUP2 SUB PUSH1 0x60 DUP4 ADD MSTORE PUSH2 0x1308 DUP2 DUP7 PUSH2 0x108E JUMP JUMPDEST SWAP1 POP PUSH2 0x1317 PUSH1 0x80 DUP4 ADD DUP6 PUSH2 0x1278 JUMP JUMPDEST PUSH2 0x1324 PUSH1 0xA0 DUP4 ADD DUP5 PUSH2 0x1046 JUMP JUMPDEST SWAP8 SWAP7 POP POP POP POP POP POP POP JUMP JUMPDEST PUSH1 0x0 PUSH1 0x40 DUP3 ADD SWAP1 POP DUP2 DUP2 SUB PUSH1 0x0 DUP4 ADD MSTORE PUSH2 0x1349 DUP2 DUP6 PUSH2 0x108E JUMP JUMPDEST SWAP1 POP PUSH2 0x1358 PUSH1 0x20 DUP4 ADD DUP5 PUSH2 0x1046 JUMP JUMPDEST SWAP4 SWAP3 POP POP POP JUMP JUMPDEST PUSH1 0x0 PUSH1 0x60 DUP3 ADD SWAP1 POP DUP2 DUP2 SUB PUSH1 0x0 DUP4 ADD MSTORE PUSH2 0x1379 DUP2 DUP7 PUSH2 0x108E JUMP JUMPDEST SWAP1 POP DUP2 DUP2 SUB PUSH1 0x20 DUP4 ADD MSTORE PUSH2 0x138D DUP2 DUP6 PUSH2 0x108E JUMP JUMPDEST SWAP1 POP DUP2 DUP2 SUB PUSH1 0x40 DUP4 ADD MSTORE PUSH2 0x13A1 DUP2 DUP5 PUSH2 0x108E JUMP JUMPDEST SWAP1 POP SWAP5 SWAP4 POP POP POP POP JUMP JUMPDEST PUSH1 0x0 PUSH1 0x20 DUP3 ADD SWAP1 POP DUP2 DUP2 SUB PUSH1 0x0 DUP4 ADD MSTORE PUSH2 0x13C4 DUP2 PUSH2 0x10F8 JUMP JUMPDEST SWAP1 POP SWAP2 SWAP1 POP JUMP JUMPDEST PUSH1 0x0 PUSH1 0x20 DUP3 ADD SWAP1 POP DUP2 DUP2 SUB PUSH1 0x0 DUP4 ADD MSTORE PUSH2 0x13E4 DUP2 PUSH2 0x1138 JUMP JUMPDEST SWAP1 POP SWAP2 SWAP1 POP JUMP JUMPDEST PUSH1 0x0 PUSH1 0x20 DUP3 ADD SWAP1 POP DUP2 DUP2 SUB PUSH1 0x0 DUP4 ADD MSTORE PUSH2 0x1404 DUP2 PUSH2 0x1178 JUMP JUMPDEST SWAP1 POP SWAP2 SWAP1 POP JUMP JUMPDEST PUSH1 0x0 PUSH1 0x20 DUP3 ADD SWAP1 POP DUP2 DUP2 SUB PUSH1 0x0 DUP4 ADD MSTORE PUSH2 0x1425 DUP2 DUP5 PUSH2 0x11B8 JUMP JUMPDEST SWAP1 POP SWAP3 SWAP2 POP POP JUMP JUMPDEST PUSH1 0x0 PUSH1 0x40 MLOAD SWAP1 POP DUP2 DUP2 ADD DUP2 DUP2 LT PUSH8 0xFFFFFFFFFFFFFFFF DUP3 GT OR ISZERO PUSH2 0x1454 JUMPI PUSH2 0x1453 PUSH2 0x1605 JUMP JUMPDEST JUMPDEST DUP1 PUSH1 0x40 MSTORE POP SWAP2 SWAP1 POP JUMP JUMPDEST PUSH1 0x0 PUSH8 0xFFFFFFFFFFFFFFFF DUP3 GT ISZERO PUSH2 0x1479 JUMPI PUSH2 0x1478 PUSH2 0x1605 JUMP JUMPDEST JUMPDEST PUSH1 0x1F NOT PUSH1 0x1F DUP4 ADD AND SWAP1 POP PUSH1 0x20 DUP2 ADD SWAP1 POP SWAP2 SWAP1 POP JUMP JUMPDEST PUSH1 0x0 DUP2 MLOAD SWAP1 POP SWAP2 SWAP1 POP JUMP JUMPDEST PUSH1 0x0 DUP3 DUP3 MSTORE PUSH1 0x20 DUP3 ADD SWAP1 POP SWAP3 SWAP2 POP POP JUMP JUMPDEST PUSH1 0x0 DUP3 DUP3 MSTORE PUSH1 0x20 DUP3 ADD SWAP1 POP SWAP3 SWAP2 POP POP JUMP JUMPDEST PUSH1 0x0 DUP2 SWAP1 POP SWAP3 SWAP2 POP POP JUMP JUMPDEST PUSH1 0x0 PUSH2 0x14D1 DUP3 PUSH2 0x14F7 JUMP JUMPDEST SWAP1 POP SWAP2 SWAP1 POP JUMP JUMPDEST PUSH1 0x0 DUP2 ISZERO ISZERO SWAP1 POP SWAP2 SWAP1 POP JUMP JUMPDEST PUSH1 0x0 DUP2 SWAP1 POP PUSH2 0x14F2 DUP3 PUSH2 0x1645 JUMP JUMPDEST SWAP2 SWAP1 POP JUMP JUMPDEST PUSH1 0x0 PUSH20 0xFFFFFFFFFFFFFFFFFFFFFFFFFFFFFFFFFFFFFFFF DUP3 AND SWAP1 POP SWAP2 SWAP1 POP JUMP JUMPDEST PUSH1 0x0 DUP2 SWAP1 POP SWAP2 SWAP1 POP JUMP JUMPDEST PUSH1 0x0 PUSH2 0x152C DUP3 PUSH2 0x14E4 JUMP JUMPDEST SWAP1 POP SWAP2 SWAP1 POP JUMP JUMPDEST DUP3 DUP2 DUP4 CALLDATACOPY PUSH1 0x0 DUP4 DUP4 ADD MSTORE POP POP POP JUMP JUMPDEST PUSH1 0x0 JUMPDEST DUP4 DUP2 LT ISZERO PUSH2 0x1560 JUMPI DUP1 DUP3 ADD MLOAD DUP2 DUP5 ADD MSTORE PUSH1 0x20 DUP2 ADD SWAP1 POP PUSH2 0x1545 JUMP JUMPDEST DUP4 DUP2 GT ISZERO PUSH2 0x156F JUMPI PUSH1 0x0 DUP5 DUP5 ADD MSTORE JUMPDEST POP POP POP POP JUMP JUMPDEST PUSH1 0x0 PUSH1 0x2 DUP3 DIV SWAP1 POP PUSH1 0x1 DUP3 AND DUP1 PUSH2 0x158D JUMPI PUSH1 0x7F DUP3 AND SWAP2 POP JUMPDEST PUSH1 0x20 DUP3 LT DUP2 EQ ISZERO PUSH2 0x15A1 JUMPI PUSH2 0x15A0 PUSH2 0x15D6 JUMP JUMPDEST JUMPDEST POP SWAP2 SWAP1 POP JUMP JUMPDEST PUSH32 0x4E487B7100000000000000000000000000000000000000000000000000000000 PUSH1 0x0 MSTORE PUSH1 0x21 PUSH1 0x4 MSTORE PUSH1 0x24 PUSH1 0x0 REVERT JUMPDEST PUSH32 0x4E487B7100000000000000000000000000000000000000000000000000000000 PUSH1 0x0 MSTORE PUSH1 0x22 PUSH1 0x4 MSTORE PUSH1 0x24 PUSH1 0x0 REVERT JUMPDEST PUSH32 0x4E487B7100000000000000000000000000000000000000000000000000000000 PUSH1 0x0 MSTORE PUSH1 0x41 PUSH1 0x4 MSTORE PUSH1 0x24 PUSH1 0x0 REVERT JUMPDEST PUSH1 0x0 PUSH1 0x1F NOT PUSH1 0x1F DUP4 ADD AND SWAP1 POP SWAP2 SWAP1 POP JUMP JUMPDEST PUSH1 0x4 DUP2 LT PUSH2 0x1656 JUMPI PUSH2 0x1655 PUSH2 0x15A7 JUMP JUMPDEST JUMPDEST POP JUMP JUMPDEST PUSH1 0x4 DUP2 LT PUSH2 0x1666 JUMPI PUSH1 0x0 DUP1 REVERT JUMPDEST POP JUMP INVALID LOG2 PUSH5 0x6970667358 0x22 SLT KECCAK256 CALLCODE 0xAF 0x4C 0xD2 PUSH19 0x114CDBF162F80156AD8942B6FDCE82D3C59 0xBC CREATE PUSH11 0x7C5C3B6FCB64736F6C6343 STOP ADDMOD STOP STOP CALLER "
				},
				"gasEstimates": {
					"creation": {
						"codeDepositCost": "1158200",
						"executionCost": "22066",
						"totalCost": "1180266"
					},
					"external": {
						"getDrug(string)": "infinite",
						"owner()": "1277",
						"registerDrug(string,string,string,string)": "infinite",
						"updateStatus(string,uint8)": "infinite",
						"verifyDrug(string)": "infinite"
					}
				},
				"methodIdentifiers": {
					"getDrug(string)": "7ecd4492",
					"owner()": "8da5cb5b",
					"registerDrug(string,string,string,string)": "1b1fd991",
					"updateStatus(string,uint8)": "53616982",
					"verifyDrug(string)": "3b7b0a74"
				}
			},
			"storageLayout": {
				"storage": [
					{
						"astId": 24,
						"contract": "CekKeaslianObat.sol:DrugAuthenticity",
						"label": "owner",
						"offset": 0,
						"slot": "0",
						"type": "t_address"
					},
					{
						"astId": 50,
						"contract": "CekKeaslianObat.sol:DrugAuthenticity",
						"label": "drugs",
						"offset": 0,
						"slot": "1",
						"type": "t_mapping(t_string_memory_ptr,t_struct(Drug)22_storage)"
					}
				],
				"types": {
					"t_address": {
						"encoding": "inplace",
						"label": "address",
						"numberOfBytes": "20"
					},
					"t_bool": {
						"encoding": "inplace",
						"label": "bool",
						"numberOfBytes": "1"
					},
					"t_enum(DrugStatus)6": {
						"encoding": "inplace",
						"label": "enum DrugAuthenticity.DrugStatus",
						"numberOfBytes": "1"
					},
					"t_mapping(t_string_memory_ptr,t_struct(Drug)22_storage)": {
						"encoding": "mapping",
						"key": "t_string_memory_ptr",
						"label": "mapping(string => struct DrugAuthenticity.Drug)",
						"numberOfBytes": "32",
						"value": "t_struct(Drug)22_storage"
					},
					"t_string_memory_ptr": {
						"encoding": "bytes",
						"label": "string",
						"numberOfBytes": "32"
					},
					"t_string_storage": {
						"encoding": "bytes",
						"label": "string",
						"numberOfBytes": "32"
					},
					"t_struct(Drug)22_storage": {
						"encoding": "inplace",
						"label": "struct DrugAuthenticity.Drug",
						"members": [
							{
								"astId": 8,
								"contract": "CekKeaslianObat.sol:DrugAuthenticity",
								"label": "drugID",
								"offset": 0,
								"slot": "0",
								"type": "t_string_storage"
							},
							{
								"astId": 10,
								"contract": "CekKeaslianObat.sol:DrugAuthenticity",
								"label": "drugName",
								"offset": 0,
								"slot": "1",
								"type": "t_string_storage"
							},
							{
								"astId": 12,
								"contract": "CekKeaslianObat.sol:DrugAuthenticity",
								"label": "manufacturer",
								"offset": 0,
								"slot": "2",
								"type": "t_string_storage"
							},
							{
								"astId": 14,
								"contract": "CekKeaslianObat.sol:DrugAuthenticity",
								"label": "batchNumber",
								"offset": 0,
								"slot": "3",
								"type": "t_string_storage"
							},
							{
								"astId": 16,
								"contract": "CekKeaslianObat.sol:DrugAuthenticity",
								"label": "productionDate",
								"offset": 0,
								"slot": "4",
								"type": "t_uint256"
							},
							{
								"astId": 19,
								"contract": "CekKeaslianObat.sol:DrugAuthenticity",
								"label": "status",
								"offset": 0,
								"slot": "5",
								"type": "t_enum(DrugStatus)6"
							},
							{
								"astId": 21,
								"contract": "CekKeaslianObat.sol:DrugAuthenticity",
								"label": "exists",
								"offset": 1,
								"slot": "5",
								"type": "t_bool"
							}
						],
						"numberOfBytes": "192"
					},
					"t_uint256": {
						"encoding": "inplace",
						"label": "uint256",
						"numberOfBytes": "32"
					}
				}
			},
			"userdoc": {
				"kind": "user",
				"methods": {},
				"version": 1
			}
		}
	}
}